:020000021000EC
:10B000000080002019E8010059E801005BE8010018
:10B010000000000000000000000000000000000030
:10B020000000000000000000000000005DE80100DA
:10B0300000000000000000005FE8010061E801007E
:10B0400065C1010063E80100F5CE010063E801007D
:10B0500063E8010000000000B5C5010063E80100DD
:10B0600063E8010063E8010063E8010063E80100B0
:10B0700063E8010063E8010063E8010063E80100A0
:10B0800063E80100A9B4010063E8010063E801007E
:10B0900085B5010063E8010031ED010063E80100BE
:10B0A00063E8010063E80100000000000000000008
:10B0B0000000000000000000000000000000000090
:10B0C00010B5064C2378002B07D1054B002B02D07E
:10B0D000044800E000BF0123237010BD281F00209A
:10B0E0000000000080010200044B10B5002B03D0CB
:10B0F0000349044800E000BF10BDC0460000000046
:10B100002C1F002080010200402292029A1A9246CF
:10B110007047C046174B002B00D1134B9D46FFF7DD
:10B12000F3FF00218B460F461348144A121A00F011
:10B1300065F80E4B002B00D098470D4B002B00D02C
:10B1400098470020002104000D000D48002802D07F
:10B150000C4800E000BF00F02DF82000290002F0AC
:10B1600047FC00F011F8C046000008000000000095
:10B170000000000000800020281F0020D0280020B0
:10B180000000000000000000084B10B50400002B78
:10B1900002D0002100E000BF054B1868836A002B35
:10B1A00000D09847200000F031F8C04600000000B1
:10B1B0009CFE010070B500260C4D0D4C641BA410C4
:10B1C000A64209D1002604F05DFE0A4D0A4C641B1C
:10B1D000A410A64205D170BDB300EB5898470136C4
:10B1E000EEE7B300EB5898470136F2E7201F002046
:10B1F000201F0020201F0020241F00200300821891
:10B20000934200D1704719700133F9E7FEE7C04659
:10B21000F8B54546DE4657464E46E0B5234B19780D
:10B220009846002929D0224B002401259946214F18
:10B23000214E03E00134E4B28C421ED23A68E300AE
:10B24000D0188246D05C2A00824033681A42F1D07E
:10B250009343336001F0A4F953461A782B00494612
:10B26000934009680B40010091408B420BD043464C
:10B2700001341978E4B28C42E0D3F0BCBB46B2464C
:10B28000A946A046F8BD53465B689B46002BEED00E
:10B290005146497801390B0059425941081A414237
:10B2A0004841C1B21000D847E1E7C046441F002022
:10B2B0006C1F0020741F0020701F0020F8B5124E74
:10B2C0000400300000F008FD002807D10125A5404A
:10B2D0000E4F3B681D4202D0AB433B60F8BD2000DF
:10B2E00001F05EF90A4A136800280BD1AB431360E2
:10B2F0003B6800221D43074B300019683D6000F099
:10B300008BFCEBE72B43F2E74C1F0020701F002063
:10B310006C1F0020481F0020F0B5CE46474680B580
:10B3200006000D00140083B0042A36D901F010F88D
:10B3300000282DD01D4B1E4A1E601E4B1D701E4B3B
:10B340001C60002313601D4A6C1E1360E4B2002DC4
:10B3500025D01B4BE4009946032300279846341957
:10B3600001AD04E02300083BA64218D01C00434670
:10B370002B70A3784A46290020786F806B7000F00C
:10B38000F1FF0028EED003B0C0BCB946B046F0BD16
:10B3900000F0AAFF0028CDD0F5E70720F3E7002151
:10B3A000084A094800F022FCEDE7C046741F00205F
:10B3B0006C1F0020441F0020481F0020701F002029
:10B3C000BDB2010011B20100A0FE010070B5094D2F
:10B3D0002B78002B0BD00024074E3268E300985CDA
:10B3E000012101F081F82B780134A342F5D8002027
:10B3F00070BDC046441F0020741F0020002300B50C
:10B4000085B001AA9060002103481380536000F0CA
:10B4100005F805B000BDC04601400000BFF34F8FE6
:10B42000034B044ADA60BFF34F8FC046FDE7C046C6
:10B4300000ED00E00400FA0510B500290ED0002A46
:10B440000AD01400531E1C401A4205D184600160CA
:10B450008380C460002010BD0920FCE70E20FAE7BD
:10B46000030010B59C888068DA68121A04209442A0
:10B4700007D30020DA6814401A681155DA680132DF
:10B48000DA6010BD8268C3689A420AD083688288F5
:10B4900013400268D35C0B70836801338360002023
:10B4A00070470520FCE7C046A021F0B50023C64642
:10B4B0002B4A490000B553500431535004315350C6
:10B4C000043153504C39535004315350254B1B68B1
:10B4D000002B35D0244900265458244A244F1268A2
:10B4E000A41A002224029046240A02E0002D18D05B
:10B4F0002B001A68A24214D8A41AB6181A7CDD6967
:10B50000002AF3D0424699691A745A693B68002BA5
:10B5100019D0100098470028E8D0FFF76FFF002DE2
:10B52000E6D11449144A0B7812789A420ED0134A85
:10B530009B009E5080218023114A5B004903D1501B
:10B5400080BCB846F0BD08009047CFE70132D3B2C7
:10B55000022B01D00B70EAE700230B70E7E7C0462F
:10B5600000100140981F002004050000941F0020D7
:10B57000781F0020911F0020901F0020881F0020AE
:10B5800000E100E0F0B54546DE4657464E46E0B5E0
:10B59000CB4BCC4A1B68CC499846CC4B8DB01B6832
:10B5A000097807931378994200D167E10133DBB240
:10B5B000022B00D160E11370C54A9B009C584346A2
:10B5C0001B191B021B0A9B465A46BD4B1A60C14BF6
:10B5D00009931E785B780393B34200D15BE10123AA
:10B5E0000493099B59465A689B7892460193BA4B3B
:10B5F00000250A931B785746089305930023A44619
:10B60000B1460B91079A3100039E069302934B00BB
:10B610005B18DB00F818824601310198C9B2081A9C
:10B62000441EA041FB5C40420140022B00D1B8E027
:10B63000032B07D1002A05D01574D269002AFBD14B
:10B6400001230693B142E2D1029BBA4664464E46BC
:10B65000002B00D0C6E1069B002B08D09B4B1A6044
:10B66000079B07929B1A591E8B41DBB20693049BE2
:10B670000025002B00D017E100239C46079F029372
:10B680000593002D2FD028006968AB68ED695A46F4
:10B69000924C8A1A1202120AA24256D8D318036098
:10B6A000624642608260012202746246C261002FDB
:10B6B00067D03C683A009C425CD2A846814603E0D1
:10B6C0001168994261D20C001500D26918001B1B49
:10B6D000002AF5D14846A946454603604B46C2615B
:10B6E000D861002DCFD1039B9E4200D126E1514667
:10B6F00073009B19019A0136F6B2B21A501E8241AC
:10B70000DB00CC18CB5C52421640012B66D160683E
:10B71000027C002A62D18A46A16890464160E368B3
:10B7200083602269C2606269089C8261012205927D
:10B73000002CACD04246002142605A4605948A1A39
:10B74000664C1202120AA242A8D95A46511A09029C
:10B75000090A994202D25B1A0360A1E763460360BB
:10B7600043608360012303746346C361002F08D0E4
:10B7700000233C68E31A3B600123C7610293070082
:10B780007FE70123070002937BE7049129004546E8
:10B79000804648468946049909194446091B1160A8
:10B7A0009BE753465868002A00D14BE7904200D1EE
:10B7B00029E113001C00DB69002B00D142E798420D
:10B7C000F8D1A0424CD01868DB698246E361002BB7
:10B7D00000D137E718685044186033E7039BB34241
:10B7E00086D11A00099B1A70029B002B00D19FE0A2
:10B7F000364B1F60079B9F4202D1069B002B25D032
:10B80000002F00D108E1364A3648374C81585A4655
:10B810008A1A12022578120A3B680332002D00D1E1
:10B8200093E0934226D3A8245B442E481B021B0AB4
:10B830002B4DE400035142595B1A521A1202120AAC
:10B840001B0203321B0A9A4200D9A4E000230A9A81
:10B8500013700DB0F0BCBB46B246A946A046F0BD81
:10B86000D269002A00D1B1E003689A46C369012079
:10B870000690AFE71300D6E700239CE6154B09932B
:10B880001E785B7803939E4200D1F9E00023C34603
:10B8900000240493A5E6099B5A689B78924601937D
:10B8A0000D4B0A931B780893079B002B00D1F5E002
:10B8B000002247460021002500209446B04629E09A
:10B8C000941F0020901F0020911F0020981F00202F
:10B8D000881F00207C1F0020841F0020FEFF7F00A7
:10B8E0000405000000100140851F0020A41A8018E4
:10B8F0006246DE681A60DA69002E06D0DD611D003E
:10B9000039180902090A59609E600121002A00D1F4
:10B9100071E013001A68A242E8D94646002902D015
:10B92000604907930B60121B1A6001230693A3E67C
:10B93000069B079F002B00D188E761E7059B002B42
:10B9400000D151E7099B1E704EE78025D1266D027C
:10B95000B6008551403E8551C0278026524DB60223
:10B960007F00EE512E60012505605048504F06685B
:10B970002F20C046C046C046C046C046C046C0464E
:10B98000C046BE4200D0C0460138F2D12570934275
:10B9900000D348E76EE7435945490351434B1A68C2
:10B9A0002F23C046C046C046C046C046C046C0461B
:10B9B000C0468A4200D0C046013BF2D1802380219C
:10B9C000394A5B008902D15040E71400012200206F
:10B9D000384B9A600B9001300692230000220290AF
:10B9E0000590F0E60A99059B33480B700B99089374
:10B9F0008B4601602FE62B4B46461A6000230793C7
:10BA00000133069338E6D0690028DED01300140015
:10BA1000020001200690D6E680218023224A890276
:10BA2000D1508023D2210124224A5B028900535045
:10BA3000403953501D4B546019682F231C481D007A
:10BA4000C046C046C046C046C046C046C046C046C6
:10BA5000814200D0C046013DF2D19460164A176081
:10BA6000C046C046C046C046C046C046C046C046A6
:10BA7000814200D0C046013BF2D1104B1F70E5E679
:10BA8000099BC3465A689B78924601930C4B00254C
:10BA90000A931B78089300230693EDE50123002504
:10BAA0000693E9E5981F002000E100E01C1F00203C
:10BAB0000024F40000100140941F0020851F002086
:10BAC000841F0020F0B5DE4657464E464546032407
:10BAD000E0B5070020009B461040224200D068E0FD
:10BAE000002A00D165E080268025334CB6026651DD
:10BAF000D2238026314D76029B00EE50403BEE5023
:10BB000001232F4E6B60994633682F269C462D4BA0
:10BB100098463300C046C046C046C046C046C046F0
:10BB2000C046C046C44500D0C046013BF2D14B469A
:10BB3000AB60C046C046C046C046C046C046C046D0
:10BB4000C046C44500D0C046013EF2D15B461E4E01
:10BB500030701E4E336000261D4B188099705A605D
:10BB60001C4B802218601C4BC5211E701B4B5203BE
:10BB70001E70C023FF265B00E25089006358B34368
:10BB80003F3E33436350A123DB0022600439EF5072
:10BB90006358134A1A40C0231B0213436350114BCE
:10BBA000EA58114B1A60F0BCBB46B246A946A04603
:10BBB000F0BD0720F7E7C04600E100E000100140BB
:10BBC0001C1F00200024F400851F0020781F002087
:10BBD0007C1F0020981F0020901F0020911F002034
:10BBE000FF00FFFF04050000941F0020094B5B6865
:10BBF000002B0AD0002A0AD0002808D00368187C3D
:10BC0000002802D159745A6170470820FCE70720C8
:10BC1000FAE7C0467C1F0020F0B5C64600B52A4FA3
:10BC200004007B680E00904682B0002B41D00028B3
:10BC30003FD0042945D94369002B3AD0457C6A4658
:10BC4000013D6B425D410023D01D6D42D3710D401B
:10BC500000F092F97878B978421CD2B2891A4B1E5A
:10BC600099413B7849420A40934224D07968430085
:10BC70008C461B18DB006344002B1CD001211348A9
:10BC8000197013495C604158DE60996041461D613E
:10BC900059616B46D8797A7000F08EF98023802143
:10BCA00000200C4A5B004903D15002B080BCB8466A
:10BCB000F0BD0820F9E76B46D87900F07DF9042043
:10BCC000F3E70720F1E7C0467C1F00200010014089
:10BCD0000405000000E100E030B51F4D04006B6872
:10BCE00083B0002B30D000282ED04369002B2BD0FE
:10BCF00000236A460374D01DD37100F03DF96978C2
:10BD0000AB784A1CD2B29B1A581E83415B421A4040
:10BD10002B7893421AD04B005B186968DB008C4685
:10BD20006344002B12D002215C6019706B46D879F5
:10BD30006A7000F041F9802380210020074A5B00EF
:10BD40004903D15003B030BD0820FBE76B46D879DA
:10BD500000F032F90420F5E77C1F002000E100E04C
:10BD600030B5047885B0012C05D0022C2ED0002CE3
:10BD70001DD005B030BD4368264D19782800FFF767
:10BD80006FFB002831D1AA68EB689A4205D002AB5C
:10BD90001870214B02A81B689847A968AA88EB680D
:10BDA0005B1A9A422FD201221C4B1A70E1E71C4CFD
:10BDB0001C482100FFF766FB00281ED0032302AABF
:10BDC0001370154B10001B689847D2E702AB1C702C
:10BDD000C3680122144915480193039300F090FFB2
:10BDE0000D4B02A81B689847C3E702AB1C700A4BB7
:10BDF00003901B6802A89847CFE7012221000B4857
:10BE000000F0F0FEB5E701220749084800F078FF8E
:10BE1000AFE7C046A01F00209C1F0020B01F0020DD
:10BE2000C81F0020B41F0020C41F0020141F0020C2
:10BE3000F0B51E00264B05000C0089B01A600029E1
:10BE400043D08A8823480968FFF7F6FA002801D012
:10BE500009B0F0BDA289A1681F48FFF7EDFA0028DC
:10BE6000F6D169460B001D4A91CA91C391CA91C38C
:10BE700011CA11C36B698B612B7C0E775A1E9341DB
:10BE80000B756B7C5A1E93410E225B4213404B751F
:10BE90006B6800932B680193EB680293AB68039384
:10BEA0000F4C104A200000F0F5FD0028D0D10E4BB9
:10BEB00018702B680133CBD0200000F0FDFF012269
:10BEC00020000A4900F01CFFC2E70720C0E7C04677
:10BED0009C1F0020A01F0020B41F0020A4FE010012
:10BEE000141F002061BD0100B01F0020C41F0020EE
:10BEF00070B50B4D01000B482E78FFF7C3FA040014
:10BF0000002E01D1200070BD002301220649074800
:10BF10002B7000F0F5FE0028F4D0FFF76FFAF1E780
:10BF2000B01F0020A01F0020C41F0020141F0020ED
:10BF3000F8B50E4D01002800FFF792FA041E01D05B
:10BF40002000F8BD0A4E300000F0CCFE0028F7D1EA
:10BF5000084F28003900FFF795FA0028F0D1012298
:10BF60003900300000F03EFE0400E9E7B41F002075
:10BF7000141F0020C81F0020F0B5EFF3108172B627
:10BF80000A4B5A68002A0DD101248025084E5C60B6
:10BF90007459084F3C401C6077510270002900D151
:10BFA00062B6F0BD01230370F8E7C046CC1F002045
:10BFB00000E100E0FC06FFBC10B5084B5A68002AFF
:10BFC0000BD0002809D1EFF3108272B604491C6827
:10BFD0000C605860002A00D162B610BDCC1F002052
:10BFE00000E100E070B5161E07DD0C008D1820780A
:10BFF0000134FFF79DFFAC42F9D1300070BDC0465F
:10C0000010B50C002000FFF773FF0528FAD00120BF
:10C0100010BDC046A022044BD205D358034A125C7F
:10C020000120D3409843704704050000C8FE01007A
:10C03000044BA0211A5C01239340034AC9058B508D
:10C040007047C046C8FE01000C050000044BA0214B
:10C050001A5C01239340A122C905D2008B5070477E
:10C06000C8FE0100A022A1238021D205DB008903A4
:10C07000D1508021C903D15080210904D1508021A1
:10C080004904D1507047C046A0228021064BD205FA
:10C090008903D1508021C903D15080210904D15096
:10C0A00080214904D15070470C050000A02210B532
:10C0B000074BD205D158074B185C012383401C0065
:10C0C000A1208C430B400449C0001450535010BDB4
:10C0D00004050000C8FE01000C050000A023032297
:10C0E0000B49DB055A5004315A500A495A50043161
:10C0F0005A50A1228021D200890399508021C9037E
:10C100009950802109049950802149049950704721
:10C11000540700005C070000A022A223D205DB0028
:10C12000D358034A125C0120D34098437047C0465D
:10C13000C4FE0100112809D0122809D0132809D003
:10C140001438434258418000013870470020FCE712
:10C150000120FAE70220F8E7014B185C7047C0465F
:10C16000C4FE010010B51A4B1A68002A14D0002230
:10C1700080211A60C2220123164CC90592008B50FF
:10C180006370A368002B07D01A6800205B68A26068
:10C190009847A368002BF7D10F4B1A68002A15D0D7
:10C1A00000221A608022C22302219B00D205D150B6
:10C1B0000123084CA3702369002B07D01A680120C3
:10C1C0005B68226198472369002BF7D110BDC046F8
:10C1D00000010040D41F00200401004010B50028D9
:10C1E0000BD1064CA368002B07D01A6800205B68AF
:10C1F000A2609847A368002BF7D110BDD41F002080
:10C2000010B582B06A460023D01DD371FFF7B4FE8B
:10C21000144C2378002B0AD0E3680133E360012338
:10C22000A3706B46D879FFF7C7FE02B010BD6360FC
:10C23000A3602361E3600C4B1B68DB070CD502F0A5
:10C2400019FD002805D18022A3230121D205DB009E
:10C25000D15001232370DFE70321002000F006F80E
:10C26000EDE7C046D41F002000E100E0F0B5002853
:10C270001EDB1B4B84089C460323C2B21840FC33D0
:10C280001F00C026C000890187400B408340A400E6
:10C290006444B600A559BD432B43A3511F231A4044
:10C2A000C0211E3B93400E4A490053501360F0BD1D
:10C2B0000C4C0325A4460F23FF240340C2B22840A0
:10C2C0002500C000890185400C408440083B9B0844
:10C2D0009B006344DE69AE433443DC61DEE7C04665
:10C2E00000E100E000ED00E070B54425154C665D0E
:10C2F000002E25D101225242D31722606360012310
:10C300005B4203210620A360E36023616361A361B4
:10C31000E36123626362A362E36223636363A363F3
:10C32000E3632364FFF7A2FF074B80211E60C12354
:10C33000064A9B000906D15001230020635570BDB9
:10C340000820FCE7E81F00207C61004000600040FE
:10C350004423034AD05C431E9841C0B27047C04694
:10C36000E81F0020F0B5CE46474680B55B4C030081
:10C37000251820352E7808207F2E03D8C0BCB9465A
:10C38000B046F0BDC878814600286FD120690130E1
:10C3900000D19DE06069013000D190E008250627BA
:10C3A000B8002658013628D0781C8446A8427DD291
:10C3B0008000265801367BD0B81C8446A84275D22E
:10C3C00080002658013673D0F81C8446A8426DD2EE
:10C3D0008000265801366BD0381D8446A84265D2AD
:10C3E00080002658013663D005370420AF42C5D2FD
:10C3F000E5690135C2D107271830E618B446202672
:10C40000B046C444664622504A467DB23570002A82
:10C4100002D1E7193C373B708A78002A2FD0A02040
:10C42000C0058446E02602279A006244F60090592F
:10C43000B8439051CA78002A2DD0294AA2209446A8
:10C44000AC00C00064442258264D09782A4022508E
:10C450001A02F8235B011A400B04C02189022558F7
:10C460000B401A432A432250002087E720680130FE
:10C4700020D06068013028D00425022790E71A00F8
:10C48000A0264878C132FF3292008000F605905114
:10C49000CA78002AD1D12B1F5BB2E41840340B7844
:10C4A00022789B0113430020237067E7042065E78F
:10C4B0006746A2E70020226028700025ACE705202F
:10C4C0000527287062610525A3E70127042094E76A
:10C4D000042722612F703D009BE7C046E81F002023
:10C4E00000600040FFE0FCFF0023F0B5294C22185B
:10C4F0002032D356032B20DD043B5BB2E3184033DC
:10C500001B789B09032B3AD0013B5A425341C0226E
:10C51000920294465B421B0C1B046344A022D2058A
:10C520009446E02280006044D20081581A4C214099
:10C53000815081580B438350F0BDD8B20328FBD8FB
:10C54000164DA227AC46012698006044FF00C5594D
:10C550003543C551180065460027403040B2800081
:10C5600080B247510029E7D0127852B29200125996
:10C57000002AE1D09E40C1239B00EE50DCE7A022C0
:10C58000A223D205DB00D2580123C240134002335C
:10C590001B04C3E7E81F0020FFFFFCFF0060004012
:10C5A000A022A223D205DB00D358C34001201840AB
:10C5B0007047C046F0B55746DE464E464546002118
:10C5C000E0B5C74A87B0039113680027012B00D15B
:10C5D00094E1C44B1A68012A00D174E1C24B1A6875
:10C5E000012A00D163E1C14B1A68012A0DD0C04B6A
:10C5F0001A68012A00D18CE1002F1ED107B0F0BCCF
:10C60000BB46B246A946A046F0BDC122B949920038
:10C61000895808220A42EAD000211960B44B174316
:10C620001A68012A09D11960A022A223D205DB00D1
:10C63000D358039380231B061F43A223DB00994694
:10C640000323AD4C9B461C33A046012600259A4689
:10C650003E4211D0A74AAB0094464A4663449858DC
:10C66000995843461B68002B06D05A46090C1140C6
:10C670005246000A1040984704239C460135760034
:10C68000E044042DE4D1002FB8DA0023C0260725AA
:10C690000493013B05934023E1564B1C3ED0C9B2A5
:10C6A0000800B043C3089C462A00012367460A409D
:10C6B000934005AAD25D134230D08A0993462218CE
:10C6C0002032127852B29200A2589146002A00D12C
:10C6D000A5E15A46032A00D1A5E1A027FF05B846E7
:10C6E00082009044E0224746D200BA5803AF92033A
:10C6F000910F6246BA5C13420DD002290ED15B46FF
:10C70000032B00D1AFE1002398464B46002B07D006
:10C710005946C84704E0032900D18DE1002398461B
:10C720004123E1564B1C38D0C9B20800B043C308BE
:10C730009C462A00012367460A40934005AAD25D21
:10C7400013422AD0221820321278890952B292005C
:10C75000A25801919146002A00D13CE1032900D161
:10C760003CE1A027FF05BA4682009244E0225746EA
:10C77000D200BA5803AF9203910F6246BA5C1342DB
:10C7800000D10CE1022908D1019B032B00D16EE1FD
:10C790004B46002B01D00199C8474223E1564B1C60
:10C7A00038D0C9B20800B043C3089C462A00012310
:10C7B00067460A40934005AAD25D13422AD0221848
:10C7C00020321278890952B29200A2580191914602
:10C7D000002A00D117E1032900D117E1A027FF05A6
:10C7E000BA4682009244E0225746D200BA5803AFBC
:10C7F0009203910F6246BA5C134200D1B3E0022962
:10C8000008D1019B032B00D135E14B46002B01D011
:10C810000199C8474323E1564B1C37D0C9B20800E1
:10C82000B043C3089C462A00012367460A40934050
:10C8300005AAD25D134229D0221820321278890924
:10C8400052B29200A25801919146002A00D1CEE046
:10C85000032900D1CEE0A027FF05BA46820092440A
:10C86000E0225746D200BA5803AF9203910F6246B6
:10C87000BA5C13425AD0022908D1019B032B00D184
:10C88000FDE04B46002B01D00199C8474346002BE1
:10C8900000D1B3E6A022A223D205DB00D358039A2D
:10C8A0009A4200D1AAE60393049B0593F3E6C122C2
:10C8B00010499200895804220A4200D193E60021CF
:10C8C000174319608FE6C1220A4992008958022253
:10C8D0000A4200D182E60021174319607EE6C04675
:10C8E0000061004004610040086100400C610040AC
:10C8F0007C61004000600040E81F0020C1201F0054
:10C90000614C800020580740034200D161E611606D
:10C910005FE600221A60A022A223D205DB00D358D2
:10C920000393002F00D085E6584CAEE60329ADD125
:10C93000019B032BA5D180239B029C46E0235246FA
:10C94000DB00D25852490A405146CA50CA58614683
:10C950000A435146CA504B46002B9BD043460133F5
:10C96000DBB2984690E7032900D053E7019B032BE5
:10C9700000D04AE780239B029C46E0235246DB001E
:10C98000D25843490A405146CA50CA5861460A43E0
:10C990005146CA5043460133DBB2984635E7032976
:10C9A00000D0FAE6019B032B00D0F1E680239B0226
:10C9B0009C46E0235246DB00D25835490A40514696
:10C9C000CA50CA5861460A435146CA5043460133C9
:10C9D000DBB29846DCE6032900D0DEE6674604AA0F
:10C9E000D75D1F43BA4667465146D155B9E603297C
:10C9F00000D04BE7674604AAD75D1F43BA46674697
:10CA00005146D15527E7032900D003E7674604AA1A
:10CA1000D75D1F43BA4667465146D155DEE65A46B2
:10CA2000032A00D07AE6674604AAD75D1F43B846BA
:10CA300067464146D15550E65B46032B00D062E67F
:10CA400080239B029C46E0234246DB00D2581049DB
:10CA50000A404146CA50CA5861460A434146CA5034
:10CA60000123984651E6C0239B029C46EBE7C02376
:10CA70009B029C469DE7C0239B029C467DE7C0230A
:10CA80009B029C465AE7C04600600040E81F002019
:10CA9000FFFFFCFFF8B5CE46474680B507794B4E01
:10CAA000FD00EB1B9B00F318DB7E04009146002B7E
:10CAB00000D089E00B685A1C0DD001209840A122BB
:10CAC0000300A020D200C005835003220B68C133AD
:10CAD000FF339B001A504B685A1C06D0A02000223E
:10CAE000C133FF339B00C0051A5020688A69384B58
:10CAF000C250087D4B7D22680343364813500A68B4
:10CB00002368944634484A681A50624633481A509B
:10CB10000B7D012B31D04A46EB1B9B00F018426085
:10CB20000A69F2504B46002B12D08E220023206857
:10CB30005200097F8350206828328350C123206827
:10CB4000274A9B00C2502368180B40B2FFF78EFBA8
:10CB5000A02304212268DB00D15000220020ED1B1D
:10CB6000AD007319103575191A76EA800132FF325B
:10CB70005A83C0BCB946B046F8BD8B685A1C06D073
:10CB8000A0200022C133FF339B00C0051A50CB68A0
:10CB90005A1C0ED001209840A1220300A020D200F0
:10CBA000C00583500322CB68C133FF339B001A506A
:10CBB000CB688A6820689446A122D2008350A223C1
:10CBC0006246DB00C250A6E70820D2E730200020F2
:10CBD000240500006C050000140500000C05000091
:10CBE00080000200F0B5DE464E46574645463B4BB8
:10CBF000E0B59B4606000079C3001B1A9B005B440E
:10CC0000987D002829D18E24988299609A7533796D
:10CC10000122984633686400185133689A6043468D
:10CC20004246DB009A1A92005A449C469368316847
:10CC3000994608514846938AC05C938A01339BB257
:10CC40009382274BC85053680020002B07D0F0BCBC
:10CC5000BB46B246A946A046F0BD1120F7E78025A5
:10CC6000907D6D001100938A143183421CD231688B
:10CC700002E0938AAB4202D00B59002BF9D0938A81
:10CC8000AB42EFD000234F460B51938AFB5C9A4690
:10CC90005746938A01339BB29382114BCF501100B8
:10CCA000938A14318342E2D380230A885B009A423C
:10CCB00011D08E21326849005358002BFCD001233B
:10CCC0000020D360634642469B1A9B005B441F00D2
:10CCD0000023BB75BBE70F20F4E7C04630200020DF
:10CCE0001C0500000279D3009B1A044A9B00D3184C
:10CCF000987D431E9841C0B27047C0463020002046
:10CD0000F0B545464E46DE4657466A4BE0B59C4672
:10CD100005790400EB00581B80006044466890468B
:10CD200083B0002E05D0C220812722688000BF007A
:10CD300017505B1B9B006344D87D002820D0187ED1
:10CD4000002800D0A5E0424619611A762379994659
:10CD5000DB0001934A46019B991A890061444B68A4
:10CD6000002B30D0C1238121002022689B00890044
:10CD7000D15003B0F0BCBB46B246A946A046F0BDB8
:10CD80004246D960DA7558761876237999464A462C
:10CD9000DB0001939B1A9B0063449B7E002BD9D13F
:10CDA0009222216852008B5021681C3A8B502368D4
:10CDB000083AFF3A1A604A46019B991A8900614471
:10CDC0004B68002BCED1A2225200924650462268D8
:10CDD000842613509222520093460E3AFF3A904610
:10CDE0000A00884440462368760019325D465D5942
:10CDF0009F59A84655465D59002F1BD1002D3DD0A7
:10CE00004A46019B47469B1A00229B006344DA7501
:10CE1000002F3CD10F20002DABD14A46019B9B1A1D
:10CE20009B0063449B7E002B3DD0012223680020A1
:10CE30001A609EE747462F43E2D10578002D10D0B7
:10CE40009F51A327FF001578DB59CF687B551378D6
:10CE50000133DBB21370137805789D4206D923683D
:10CE6000C4E7A3229D51D2009B584B7E4A46019BAA
:10CE70009B1A00229B006344DA75CEE74746002FD9
:10CE8000B4D04A46019B9B1A9B006344DD75032086
:10CE90006FE7002E0CD0C123812122689B008900FE
:10CEA0001120D15065E70122236800205A6060E715
:10CEB00011205EE73020002010B501790C4ACB002C
:10CEC0005B1A9B00D3189B7E002B10D19221046823
:10CED0004900635004681C39635003680839FF39FE
:10CEE00019600079C3001B1A9B00D218917610BDFF
:10CEF00030200020C12330B55E4A9B00D35885B056
:10CF00009B0559D592235B00D158002954D00021AC
:10CF1000D1508121E533FF338900D150564B997EA2
:10CF2000002901D101315160022269460A70902125
:10CF30005048C9004258425069460392DA7D68461B
:10CF40000A72DA6801920022DA751A760ACB9847DB
:10CF50008E21484A49005358002B0FD0464B9C8ADB
:10CF60009D7DAC4262D200205050998A9868405C06
:10CF7000998A013189B29982404BD050A2233D4A0F
:10CF80005B00D158002915D00021D1503A4B997E31
:10CF9000002901D001211160DA7D002A0AD0002287
:10CFA00068460121DA755A7E01700272DA680ACB8E
:10CFB0000192984705B030BDC1232E4A9B00D3583B
:10CFC0005B07C5D5842149005358002BC0D02A4B9C
:10CFD000D87D002838D000205050A320C000597EB2
:10CFE0001258D86842545A7ED87D0132D2B25A764D
:10CFF0005A7E8242ACD11A7E002A2AD19A7E002A19
:10D0000002D101211B4A5160C2228120194992009C
:10D0100080008850002268460121DA755A7E01702E
:10D020000272DA680ACB0192984791E700205050CB
:10D03000002DA3D06A46107015729A6898750192F7
:10D0400068460ACB984799E75050A321C900525827
:10D05000CEE7DA751A69D968DA6000226C46587E24
:10D060001A765A76013220722270684601910ACBF4
:10D0700098476DE700200040302000201C0500008C
:10D0800010B50220FFF712F810BDC04670B5814DF3
:10D0900004002B78002B06D1172C00D9F7E07E4A2C
:10D0A000A300D3589F4600232B70FEF7DBFFF3E766
:10D0B0007A4E3000FEF710FE11230500181BA34224
:10D0C00000D1E0E0002D00D0DDE001280CD0B73326
:10D0D0006421584301F06AFE714B002219684143F4
:10D0E0003000FEF799FD05000220FEF7A1FF0BE0DE
:10D0F000012301202B70FEF7D9FF694B002219682C
:10D100006848FEF789FD0500280070BD0123012055
:10D110002B70FEF7CBFF624B00221B686148990021
:10D12000C918FEF779FD0500EEE7FEF7ADFF5E4B8F
:10D1300000251C70E8E70020FEF76CFF002800D0F7
:10D1400096E00020FEF774FFA11E4B4259410123D7
:10D15000494299430431544B1C70514B1B6872E097
:10D160000020FEF757FF00287ED10020FEF760FF69
:10D1700005224D4B4B481A70494B00221968490053
:10D18000FEF74AFD0500BFE70020FEF743FF002839
:10D1900065D10020FEF74CFF02230321424A4FE0F5
:10D1A000FEF772FF0C22404B00251A70ACE7FEF729
:10D1B00059FF00223C4B00251A70A5E7FEF752FFED
:10D1C0001222394B00251A709EE7FEF74BFF002014
:10D1D000FEF72EFF1322344B00251A7094E7FEF75A
:10D1E00041FF0120FEF724FF14222F4B00251A7067
:10D1F0008AE7FEF737FF0020FEF71AFF0120FEF74F
:10D2000017FF1522284B00251A707DE70020FEF736
:10D210004DFF0622244B1A706FE70020FEF708FF2F
:10D220000722214B00251A706EE70020FEF7F2FE60
:10D2300000280FD10020FEF7FBFE042304211A4A28
:10D240001170174A1168002259431648FEF7E4FC92
:10D25000050059E70020FEF7F9FE2823EEE700203D
:10D26000FEF7F4FE082398E70020FEF7EFFE7FE7C5
:10D270000020FEF7EBFEA11E4B4259411523494207
:10D280009943283167E70220FEF7E0FE3CE70025DE
:10D290003AE7C046A4200020CCFE01005020002028
:10D2A00070200020A8200020CC200020F8B5CE4619
:10D2B000474680B506000D00FEF73CFF040003283A
:10D2C00005D8012D14D0022D2AD0002D03D0C0BCCA
:10D2D000B946B046F8BD1D48FEF7FEFC1C4B620087
:10D2E00012199B189D781B4B1B5DAB42EFD10EE0D2
:10D2F000174F430098461B18FD5CFB185B78002B0A
:10D3000014D143461B19FF18BA78124B1A55002D39
:10D31000DDD0114B1B68002BD9D028009847D6E7E9
:10D32000400000190A4C24186578F0E70B4B0748B9
:10D3300099460B4B4A461B689900C9184900FEF7ED
:10D340006BFC0028DDD14B461E70DAE7742000200C
:10D3500094200020D0200020C82000204C20002055
:10D360007020002010B5054B1B68DB0700D410BDF2
:10D37000034B1878FFF78AFEF9E7C046A02000208B
:10D38000CC20002010B50078FEF7D4FE03280BD87F
:10D3900043001B180548C0184078002804D0044BEF
:10D3A0001B68002B00D0984710BDC0469420002079
:10D3B000C820002010B5FEF7AFFE10BD10B5064A1C
:10D3C00001231268110019401A4201D1080010BD52
:10D3D000FFF75CFE0100F9E7A0200020214B70B5AB
:10D3E0001960214B05001860204B1A60830713D584
:10D3F0000E221F4B1F481A700132DA7001329A71E7
:10D4000001325A724A080421FDF786FF041E16D025
:10D41000EB0723D4200070BDC3070DD40021164AAA
:10D420001648FEF7E3FB041EF4D10121144A154807
:10D43000FEF7DCFB0400EDE7FEF750FEEEE7FDF73C
:10D44000C5FF041EE4D100210F4A1048FEF7CEFBB1
:10D450000400EB0702D4002CDCD1DFE7FEF73EFE30
:10D46000F9E7C04670200020A0200020C82000203E
:10D47000942000202CFF010065D3010054FF01001F
:10D4800081D001004CFF010085D3010050FF010055
:10D49000032807D8012A07D001290BD0022916D06A
:10D4A00000290DD00720704700220129F6D1020083
:10D4B0000E32D2B243001818084BC2540020F2E7D3
:10D4C00043001B180548C01882700020EBE743009A
:10D4D0001B180248C01842700020E4E79420002086
:10D4E00010B5FEF739FEA023DB059C46E023800043
:10D4F0006044DB00C25805490A40C250C022C158EE
:10D5000092020A43C250002010BDC046FFFFFCFF3C
:10D5100010B50020FFF7E4FF002802D0062800D055
:10D5200010BD0120FFF7DCFF0028F9D0831F5A1E31
:10D5300093415B421840F3E710B50388102B08D0E5
:10D54000112B05D1294A1368013B1360002B07D02A
:10D5500010BD264C2368002B24D001332360F7E74D
:10D56000012202210020FFF793FF002807D007289F
:10D5700005D01F4B1B68002BEAD09847E8E707222D
:10D5800002210120FFF784FF002801D00728F0D1F5
:10D590000A2200210020FFF77BFF0028D8D00728AF
:10D5A000E7D1D5E7012200210020FFF771FF002815
:10D5B00008D0072806D00E4B1B68002B00D09847D8
:10D5C0002368CAE7072202210120FFF761FF002834
:10D5D00001D00728EFD1042202210020FFF758FFD5
:10D5E0000028EDD00728E6D1EAE7C046D820002081
:10D5F000D42000201B4B10B50C1E186006D0012053
:10D60000FFF7D8FE002823D002232370164B1B6897
:10D61000002B01D0002010BD012202210020FFF7C5
:10D6200037FF002801D00728F5D107220221012069
:10D63000FFF72EFF002801D00728ECD10A22002195
:10D640000020FFF725FF0028E4D00728E3D1E1E719
:10D650000020FFF7AFFE002802D00B232370D5E790
:10D660002070D3E7D4200020D82000203CDF704772
:10D6700048DF704775DF704776DF70477FDF7047A0
:10D680008ADF70478CDF704764DF704710B5010098
:10D69000014801F05BF910BDE423002070B5037868
:10D6A000012B04D0022B02D0002B04D070BD4068A7
:10D6B000FDF7A4FEFAE70E4C0E4D20782818FEF771
:10D6C00017FC22780132D2B2AB18013B1B782270D2
:10D6D0000A2B01D0132AE9D9074E00E0227829004D
:10D6E000300092B201F012FA0028F7D12070DDE785
:10D6F000802100206C210020E423002010B50428A4
:10D700000FD00A280CD10020FFF758FE002814D1B2
:10D71000FFF7FEFE002816D1FFF7A8FF002809D169
:10D7200010BD0A4B13215888FFF7A6FF08230200FB
:10D730009A43F5D0FDF762FEF2E7FDF75FFEFFF7D3
:10D74000E7FE0028E8D0FDF759FEE5E7E4230020D6
:10D7500070B50B7805000C00022B04D0032B21D0F0
:10D76000012B0FD070BD0B7A0025002BFAD0636817
:10D77000585DFEF7DDFB0028F9D1237A0135AB4275
:10D78000F5D8EFE70A0049880A3201F0E1F90028EC
:10D790001ED1280001F098F9002816D10E4801F09A
:10D7A0009BFBDFE70D4801F097FB0D48FFF768FF93
:10D7B000002807D10120FFF701FE0028D2D0FDF795
:10D7C0001DFECFE7FDF71AFEF4E7FDF717FEE5E7CC
:10D7D000FDF714FEDDE7C04658FF010084FF01009D
:10D7E000CC000200F0B55746DE464E464546E0B551
:10D7F0000388070087B03A2B09D80F2B11D9103BAB
:10D800009BB22A2B0DD8734A9B00D3589F46552BA9
:10D8100007D11321B888FFF72FFF002801D0FDF7AB
:10D82000EDFD6D4C3800FFF787FE3900200000F059
:10D83000B5FB3900694801F009F907B0F0BCBB46F7
:10D84000B246A946A046F0BD0720FFF7B7FD002865
:10D8500000D0A9E0604CB988200000F05FFB0028F0
:10D86000E0D0FDF7CBFDDDE7002300228521808895
:10D87000FFF704FF0028D4D0D1E7037A022B00D1B0
:10D8800095E0032BCDD1564801F026FB524CC9E759
:10D8900011239A46027C8244D208C2D0002305ADEF
:10D8A00098460AE0191F01295FD9063B012B4DD983
:10D8B0004B46013398449045B3D2414653465B5C96
:10D8C0009946534643445B78991E0129EAD84B4652
:10D8D0005B089B46ECD04446133400263C1903E019
:10D8E00001360234B3453DD92A0021000220FFF75A
:10D8F000CBFE0028F4D12B88012BF1D1AB78022B81
:10D90000EED13800374A38490830FFF7BBFE00280F
:10D9100000D086E70020FFF751FD002856D1B87BE4
:10D92000FB7A0290787BBA7A0190387B797A009002
:10D930002E4801F0D1FA284C74E73900808808316C
:10D94000FFF798FE002800D16BE768E74346991C73
:10D950002A0010205144FFF797FE002802D12B889F
:10D96000012B1DD03A7CD208A2E74B469B089B4670
:10D970009ED04446133400263C1903E0013604349B
:10D98000B345EFD92A0021000220FFF77DFE0028D1
:10D99000F4D12B88012BF1D1AB78022BEED1B0E77B
:10D9A000AB78022BDED1ACE7FDF728FD52E70E483D
:10D9B000FFF766FE002806D10120FFF7FFFC0028D4
:10D9C00000D12EE72BE7FDF719FDF5E7FDF716FD72
:10D9D000A5E7C046E4FF010084210020E4230020E5
:10D9E000C4FF0100C4000200CC00020094FF01004B
:10D9F00070B500238CB003210020444AFEF762F882
:10DA0000002861D1424D06AC23002A0043CA43C31B
:10DA100043CA43C33F4B404A029380235B000393B6
:10DA20000492059320003D4AFD3B02A9FEF700FA4F
:10DA3000002867D101203A4A3A49FFF7CFFC002875
:10DA40005DD121000020FFF7D5FD002854D13648D4
:10DA500000F0E2F900284CD1AB694822019302930F
:10DA60003249002302A801F00BF900283ED1220020
:10DA70000021012001F074F9002834D1200001F0C8
:10DA800087F900282CD12A4801F048F9002824D130
:10DA9000284B21002848069300F0AEFF002819D13A
:10DAA000264801F019FA2648FFF7EAFD00280ED1B2
:10DAB0000120FFF783FC002803D1FFF7D9FD0028E0
:10DAC000FBD0FDF79BFCF8E7FDF798FC9AE7FDF724
:10DAD00095FCEDE7FDF792FCE2E7FDF78FFCD7E759
:10DAE000FDF78CFCCFE7FDF789FCC7E7FDF786FC67
:10DAF000BDE7FDF783FCAFE7FDF780FCA7E7FDF787
:10DB00007DFC9EE7FDF77AFC94E7C046DC20002010
:10DB1000A8000200F4230020F42400209DD6010078
:10DB2000FDD60100CD0C00008DD60100242100207F
:10DB3000E5D7010051D70100E42300209000020046
:10DB4000CC00020090DF704792DF704793DF704790
:10DB5000F0B5294C294B2468C55C9BB0002C21D022
:10DB6000F73BFF3B6B43C018254B85789E78AE4250
:10DB700033D0012C16D09E79AE4233D0022C11D076
:10DB80009E7AAE4233D0032C0CD09E7BAE420BD09B
:10DB9000042C07D09E7CAE4215D0052C02D09C7D73
:10DBA000AC4215D01BB0F0BD9F890688B742EFD1BB
:10DBB000144B1B68002BF5D068464280012201916E
:10DBC00002709847EEE71F8A0688B742E5D1EFE773
:10DBD0009C8A03889C42E5D1EAE707881E88B74201
:10DBE000C7D1E5E79F880688B742C7D1E0E71F891C
:10DBF0000688B742C7D1DBE7FC2500205A020000A7
:10DC00008C280020F4250020F0B54546DE46574616
:10DC10004E46E0B5464B83B000920D00C15C454BCB
:10DC20001C689846002C21D064264E43424B86192E
:10DC3000B7789A78BA4265D0012C17D09A79BA424F
:10DC400067D0022C12D09A7ABA4200D168E0032C35
:10DC50000CD09A7BBA4210D0042C07D09A7CBA42DE
:10DC600045D0052C02D09A7DBA4246D003B0F0BC14
:10DC7000BB46B246A946A046F0BD9A899146328875
:10DC80009145E9D12D4B1B689A46002BEED02C4BC9
:10DC90001F689946052FE9D86C237B439B46294E84
:10DCA0000193B3445B46009A01375A806422514382
:10DCB0000433411818006B425D4101F003F9019AE9
:10DCC0006D005B46B55452469A664B461F60A742AC
:10DCD000CCD10024B36E3000984743461B68013412
:10DCE0006C369C42F6D300234A461360BEE71A8A7C
:10DCF000914632889145B4D1C4E79F8A33889F42C8
:10DD0000B4D1BFE7328891461A88914500D093E795
:10DD1000B8E7328891469A88914500D091E7B1E7FB
:10DD20001A8991463288914500D090E7AAE7C0460B
:10DD30005A020000FC2500208C280020F425002039
:10DD40008828002000260020F0B54E464546DE46D5
:10DD5000574688466421E0B591462D4A2D4B825C9A
:10DD6000C35C4A43DD00ED1881186D008B46AD1889
:10DD700009790A355E1C070083B045198E423DD0F3
:10DD80008B4234D2481E8446901D8246F400A4196A
:10DD90006400A4180A343C192D899C4516D05046BD
:10DDA000A61A365A0135B54219D001A9013E0D8097
:10DDB0004E800023424648461370FFF7C7FE03B06B
:10DDC000F0BCBB46B246A946A046F0BD58460689FF
:10DDD000B54211D001A901350D804E80E9E725003B
:10DDE00001330C48DEB23B541234B142D4D8012383
:10DDF000424600201370E2E70025F1E75A462B89DE
:10DE000012899342F3D001A901330B804A80D0E7F5
:10DE10005A0200005902000000280BD00023012103
:10DE2000054A1360054A1170054A1360054B1860D6
:10DE3000002070470E20FCE7FC250020F82500207C
:10DE400088280020F4250020010070B5002856D055
:10DE50002E4B1B78002B23D02D4D2A68002A50D042
:10DE60002C4B84789878A0421CD0012A25D0987930
:10DE7000A0422BD0022A20D0987AA0422BD0032A8D
:10DE80001BD0987BA0422BD0042A16D0987CA042AD
:10DE90002BD0052A11D09E7D0420A6422AD070BD29
:10DEA0000820FCE71E8808888642DED11A480468EC
:10DEB0000020002CF3D1052A26D8541C90001818F5
:10DEC000042200F0FFFF00202C60E8E79E8808880D
:10DED0008642CFD1EAE71E8908888642CFD1E5E79E
:10DEE0009E8908888642CFD1E0E71E8A088886424C
:10DEF000CFD1DBE79E8A0C88A642D0D1D6E70E2090
:10DF0000CDE70124034BD9E70420C8E7F82500201A
:10DF1000FC2500208C280020F425002070B504008A
:10DF20000D00002828D0154B1B78002B20D0144B57
:10DF30001B68002B1CD0134E835D002B1AD1124A94
:10DF4000A152124A12491360972292008354114A37
:10DF50008354114A8354042200F0B4FF22000121AB
:10DF60002800FFF7EFFD002801D10123A35570BD64
:10DF70000820FCE71120FAE70E20F8E7F82500203A
:10DF8000FC2500205B0200005E02000088280020C3
:10DF90008C2800205A02000059020000F0B54546C6
:10DFA000DE4657464E46E0B50C0005009FB00028FF
:10DFB00000D17BE0002900D178E06C4B1B78002B6E
:10DFC00074D00B88322B00D1E4E000D975E0112B1E
:10DFD00000D1C2E0302B69D1654A8B88825A9A42BF
:10DFE00064D1CB88002B00D0D3E16426614B04229E
:10DFF000C75C0E317E438619300000F063FF2100BC
:10E000000422B01D123100F05DFF5B4BA088EB5C79
:10E01000002B00D1EAE1013BDAB2D3009B18642265
:10E0200057435B00DB19EB185B8A01339BB202AAF2
:10E030001381338904A95381FFF786FD002835D069
:10E0400000224E4BEA544E4A4A4B1268A188EE5CBD
:10E05000002A27D0F73BFF3B73434A4FED18AB78BC
:10E06000BE789E4200D13DE3012A1BD0BE799E427C
:10E0700000D145E3022A15D0BE7A9E4200D14DE37D
:10E08000032A0FD0BE7B9E4200D155E3042A09D05B
:10E09000BE7C9E4200D156E3052A03D0BA7D9A4247
:10E0A00000D1B7E20322384B1A7059801FB0F0BC80
:10E0B000BB46B246A946A046F0BD332BF6D12C4B49
:10E0C0008A88C35A9A42F1D12A4BC35C9C462A4B98
:10E0D000C35C9846CB88002B00D032E18B89002BA3
:10E0E00000D12EE14346DB004344580067466423D9
:10E0F0007B43C0181A239946281881440A004B46CE
:10E100000021A946214E1D000E3218E0204FBB42CF
:10E1100000D010E113880383838A002B09D0C38ABF
:10E12000002B06D0038B002B03D02B88002B00D0B4
:10E1300006E1A38901310632994200D300E15388F8
:10E14000B34200D1F9E000D9F0E0A427BF01BB42FF
:10E15000DCD11388C382838ADFE7054B8A88C35AE0
:10E160009A42A3D10022054BC2549FE7F825002014
:10E170005E0200005A020000590200005B0200002B
:10E18000FC2500208C280020002600200229000009
:10E1900001290000D04B8A88C35A9A4200D085E7F3
:10E1A000CB88002B00D097E0CC4BC35C9B4664230C
:10E1B0005A4653439A46824453461B7998460B7BF2
:10E1C0004344052B00DD0CE1DBB299461A000193B4
:10E1D00053461A71C84500D3E4E143465A46DF006E
:10E1E00064235A43944647447F006744EF1938003C
:10E1F000210000920E310A220A3000F063FE4146EF
:10E2000000264B1CBE82FE823E837E83994553D9F5
:10E21000009ADF009446FF187F006744EF1938002A
:10E2200021000A220A30183100F04CFE4346023326
:10E23000BE82FE823E837E8399453DD9DF00FF1872
:10E24000009B7F009C466744EF19380021000A229A
:10E250000A30223100F036FE4246D31CBE82FE82D6
:10E260003E837E83994527D9009ADF009446FF18A4
:10E270007F006744EF19380021000A220A302C3150
:10E2800000F020FE43460433BE82FE823E837E833E
:10E29000994511D9009ADF009446FF187F00674422
:10E2A000EF19380021000A220A30363100F00AFE48
:10E2B000BE82FE823E837E834A46013A53461989D6
:10E2C000D3009B185846642242435B009B18EB180E
:10E2D0005B8A8B4200D28BE00027814B2800EF54F1
:10E2E000984602ABA288D91DFFF72EFD061E00D06E
:10E2F000A8E002ABDB79002B00D1D7E6A288012190
:10E300002800FFF781FC97229200AB5CA4880133C0
:10E31000DBB2AB54734A1268934200D2B4E10322D9
:10E32000714BEE54714B1A705C80BFE6704FBB426C
:10E3300001D113882B80838AEFE613888382ECE671
:10E340004D4600266427624602ABDE7143467A439F
:10E35000AA1812790133934232D1012302AAD37150
:10E36000A28801212800FFF74FFC97229200AB5CA6
:10E37000A4880133DBB2AB545A4A1268934200D2EC
:10E380005CE10022584BEA54584B03321A705C800F
:10E390008CE60021FFF738FC97229200AB5CA68840
:10E3A0000133DBB2AB544F4A1468A34200D2A5E05C
:10E3B00000224D4BEA544D4B03321A705E8075E6D5
:10E3C000474A2800AB5402ABA288D91DFFF7BCFC1A
:10E3D000002800D0E9E002ABDB79002B00D165E634
:10E3E000BEE7052399461A000193F1E6F3881EE67D
:10E3F000019E052E00D16FE7394BEE54A088331EE5
:10E4000000D165E1013BDBB2DE00F3185B009A1836
:10E41000AA18538A01339BB202AA5181138104A91D
:10E42000FFF792FB011E00D140E600222E4B280090
:10E43000EA54A288FFF78CFB03222C4B1A70A288A7
:10E440005A8033E6284BEF54244BA188EA5C254BD5
:10E450001B68002B00D125E664205043254F2D1862
:10E46000AA78B878904200D12BE1012B00D119E6AF
:10E47000B879904200D12EE1022B00D112E6B87A91
:10E48000904200D135E1032B00D10BE6B87B9042DE
:10E4900000D13CE1042B00D104E6B87C904200D1CD
:10E4A00043E1052B00D1FDE5BB7D934200D0F9E5AA
:10E4B000BA8A2B889A4200D0F4E50F4B1B68002BD8
:10E4C00000D1EFE502AA5181012202A90A7204A833
:10E4D00005969847A188E5E55E0200005A02000013
:10E4E00059020000FC2500205B02000000260020ED
:10E4F000082900008C280020F425002000239B46DA
:10E500005A46BB4BBB4FEA54BB4B9A465246EB5C58
:10E510000133DBB2AB54F73AFF3A91465A43904687
:10E520009900A84404227918404600F0CBFC5A46D2
:10E53000434601211A7130004246FFF703FB0028D1
:10E5400000D1B3E55A46AD4BEA5453464A46EB5C1C
:10E550005A43AD18AB78BA789A4200D11DE1012C2C
:10E560001BD0BA799A4200D12AE1022C15D0BA7A8E
:10E570009A4200D12AE1032C0FD0BA7B9A4200D1F3
:10E5800030E1042C09D0BA7C9A4200D124E1052C58
:10E5900003D0BA7D9A4200D138E10322984B1A7019
:10E5A0005E8083E54246013A88E6944BEE54924BF6
:10E5B000A188EA5C934B1B68002B00D172E557439E
:10E5C000ED198C4FAA78BE78964200D1C2E0012B9B
:10E5D00000D167E5BE79964200D1C2E0022B00D19E
:10E5E00060E5BE7A964200D1C2E0032B00D159E526
:10E5F000BE7B964200D1C2E0042B00D152E5BE7C26
:10E60000964200D1C2E0052B00D14BE5BB7D934281
:10E6100000D047E5BA8A2B889A4200D042E57A4B6F
:10E620001B68002B00D13DE502AA5181012202A9FD
:10E630000A72059004A89847A18833E5002764264C
:10E640006B4B6D4AEF54AB5C0133DBB25E43AB54B2
:10E650009900684BAE1959180422300000F032FCC2
:10E660000121320020003771FFF76CFA011E00D142
:10E670001CE5624BEF5422002800FFF769FA0322E1
:10E680005F4B1A705C8011E5434664275A4AEE548A
:10E69000AB5C58490133DBB25F43AB54EF199B00CD
:10E6A000C9180422380000F00DFC01213A002000B6
:10E6B0003E71FFF747FA011E00D1F7E44F4BEE54CD
:10E6C000D9E7388884462888844500D0CDE6F4E62A
:10E6D0005346DB88A0E6B88884462888844500D065
:10E6E000CAE6EAE62E88B4463E88B44500D0BBE4CC
:10E6F00095E7388984462888844500D0C3E6DCE65F
:10E70000BE88B4462E88B44500D0B3E487E7B88904
:10E7100084462888844500D0BCE6CEE63E89B446CF
:10E720002E88B44500D0ABE479E7388A844628883F
:10E73000844500D0B5E6C0E62E88B446BE89B4450F
:10E7400000D0A3E46BE72E88B4463E8AB44500D0DF
:10E75000A2E464E73E88B4462E88B44500D036E78C
:10E760005DE7BE88B4462E88B44500D036E756E74C
:10E770003E89B4462E88B44500D036E74FE7BE89BF
:10E78000B4462E88B44500D036E748E73E8AB44602
:10E790002E88B44500D036E741E729883A8891426F
:10E7A00000D0DCE6184B1B68002B00D1F5E602AA6E
:10E7B0005681012202A90A72059004A89847ECE646
:10E7C000B9882A88914200D0CFE6EBE739892A88B8
:10E7D000914200D0CFE6E5E7398A2A88914200D0FD
:10E7E000D5E6DFE7B9892A88914200D0C9E6D9E7A2
:10E7F000590200008C2800205A0200005B02000031
:10E8000000260020FC250020F4250020BA8A2B8851
:10E810009A4200D0C1E6C5E703210A4802680A43CC
:10E820000260094802680A4302600849084A094B25
:10E830009B1A03DD043BC858D050FBDC00F012F8F3
:10E84000FCF768FC24050040540500408C010200E0
:10E85000B01E0020281F0020FEE7FEE7FEE7FEE7CF
:10E86000FEE7FEE72D4B1B78012B00D070472C4BA9
:10E870001B681B07FAD12B4AF023126811001940BC
:10E880001A4201D0102946D1274A12681A421FD0D5
:10E89000F022244B1B681340402B29D0F022214B3F
:10E8A0001B681340A02B01D0D02BDFD1F0231E4AD0
:10E8B00012681A42DAD11D4A1368012B04D01C4B8E
:10E8C00013601368012BFCD1C0221A4B1A60CDE7EC
:10E8D000194B1A4A1A608022194B12021A600F4B08
:10E8E0001B78012BC2D10E4B1B681B07D0D0BDE794
:10E8F0000D4B1B681342D1D18022C1230121DB00C3
:10E90000D205D150054B1B78012BAFD1044B1B68AE
:10E910001B07C3D0AAE73029B6D0B9E7E00F00F053
:10E92000E40F00F0E80F00F0EC0F00F000EC064000
:10E930007593000014EC064004050040DFFF07C09B
:10E94000186C004098DF704763DF7047F0B5CE4623
:10E9500047460C0080B585B00500102200216846AE
:10E96000FCF74CFC2378002B02D1A388012B04D0A8
:10E9700005B0C0BCB946B046F0BDA2792B789A422A
:10E98000F6D1207A00282CD06B465B890027994667
:10E990006B469B89002698466B46DB8900229C4685
:10E9A00023000E330AE0032904D11989012789467F
:10E9B0005989884601321233824206D219880229C7
:10E9C000F1D1198901268C46F4E7002E02D06B465E
:10E9D0006246DA81002F04D06B464A465A8142468D
:10E9E0009A81EB68002BC3D06946628828004A8070
:10E9F00001220A709847BBE7F0B587B0040002A86F
:10EA00000200114B0D00C2CBC2C21B681360002C68
:10EA100017D0002D15D02100FFF796FF002801D058
:10EA200007B0F0BD6A462378937101239380023BBF
:10EA300063802B68A0802081E36001A8FFF704FABF
:10EA4000EEE70E20ECE7C046DC00020010B584B013
:10EA5000002813D0002911D043881A4A93420FD0BE
:10EA60008A889A420AD10B88112B12D0392B05D1F2
:10EA70008388002B02D08A899A4214D004B010BD3A
:10EA80000A88112A02D0392AF8D1F1E78A889A42F5
:10EA9000F4D1C368002BF1D0032269460A70043A0E
:10EAA00042809847EAE7C368002BE7D06C46022211
:10EAB00022700A00123201920A8A6946227298472D
:10EAC000DCE7C046FFFF000000B5030085B000286A
:10EAD00018D040880C4A904212D0DB88002B0FD00F
:10EAE000694601220A800222CB808023FF328A807D
:10EAF0009B02039101A90293FFF724FF05B000BD1B
:10EB00000820FBE70E20F9E7FFFF000030B5030007
:10EB10000C0085B0002817D0142A11D840880B4962
:10EB200088420FD0812501A96D000D801B89CA8004
:10EB30004B8000238C608B80FFF704FF05B030BD55
:10EB40000720FBE70820F9E70E20F7E7FFFF0000AA
:10EB500000280CD04180002A07D05388C380138836
:10EB6000838093880381002070470020FCE70E20FB
:10EB7000FAE7C04652DF704710DF704760DF70472A
:10EB800061DF704710B5FCF749FC10BDF0B5464693
:10EB9000D6464F46C0B5324B324D98461B6882B0C0
:10EBA0005C425C412B78E4B2002B2DD12E4B01A8A6
:10EBB00099462E4EFFF7DEFF052837D0002838D0C3
:10EBC000FCF71CFC002C28D100239A462B78DCB2E1
:10EBD000002B19D14B466A461B8837689380380052
:10EBE00001A9FFF7CDFF052814D000282ED14346F8
:10EBF00038001B6898475346002B0FD001239A46D4
:10EC00002B78DCB2002BE5D002B0E0BCBA46B146AE
:10EC1000A846F0BD5346002BF6D101242B78002BDB
:10EC2000F2D101A8FFF7A6FF0528C7D1002CE5D037
:10EC3000EAE70198FDF7D2FA0D4B1B68002B01D0D3
:10EC400001989847002CBFD00124E7E7FCF7D6FBDA
:10EC50005346002BD2D12B78002BE2D0D4E7C0460C
:10EC6000A8280020B1280020A4280020B8280020CF
:10EC7000B4280020014B1878C0B27047B02800209B
:10EC800070B5002931D08C072FD101251B4C216094
:10EC90001B491C4C0A801C4A136023681D4208D083
:10ECA00080231A49E550FFF767FF002806D025604A
:10ECB00070BD1649FFF760FF0028F9D10124144BFD
:10ECC0001C70FDF79DFAC5230E4A9B00D3589B0D7F
:10ECD0001C420CD00F4B586800280AD080221968BB
:10ECE000D2030A4300201A60E2E70720E0E70A485F
:10ECF000DEE78023DB031360DAE7C046B828002094
:10ED0000A428002000E100E0AC28002085EB0100F1
:10ED1000B0280020CC1F002002200000002803D0D3
:10ED2000024B1860002070470E20FCE7A828002046
:10ED300010B5094B1B68002B06D09847002800D15E
:10ED400010BDFCF75BFBFBE7044B1B78002BF7D0F7
:10ED5000FFF71CFFF4E7C046AC280020B0280020D5
:10ED600070B5140005000E00142200212000FCF7ED
:10ED700045FA002301222361237B228093432373DE
:10ED800026726572002D01D00123A372002070BD90
:10ED900000B5054B83B00193019B69460093FFF7D3
:10EDA000EDFE019B03B000BDB01E00200022430811
:10EDB0008B4274D303098B425FD3030A8B4244D343
:10EDC000030B8B4228D3030C8B420DD3FF22090285
:10EDD00012BA030C8B4202D31212090265D0030B44
:10EDE0008B4219D300E0090AC30B8B4201D3CB033A
:10EDF000C01A5241830B8B4201D38B03C01A52417C
:10EE0000430B8B4201D34B03C01A5241030B8B427D
:10EE100001D30B03C01A5241C30A8B4201D3CB0268
:10EE2000C01A5241830A8B4201D38B02C01A52414D
:10EE3000430A8B4201D34B02C01A5241030A8B4250
:10EE400001D30B02C01A5241CDD2C3098B4201D368
:10EE5000CB01C01A524183098B4201D38B01C01AE6
:10EE6000524143098B4201D34B01C01A524103095D
:10EE70008B4201D30B01C01A5241C3088B4201D30C
:10EE8000CB00C01A524183088B4201D38B00C01AB9
:10EE9000524143088B4201D34B00C01A5241411AE0
:10EEA00000D20146524110467047FFE701B50020ED
:10EEB00000F006F802BDC0460029F7D076E770479B
:10EEC0007047C046002310B59A4200D110BDCC5CFB
:10EED000C4540133F8E700000FB40B4B13B51C68A2
:10EEE000002C05D0A369002B02D1200000F070F89F
:10EEF00005AB2000049AA168019300F093F916BCB9
:10EF000008BC04B01847C046B01E0020002310B54E
:10EF10000400036043608360818143661900C281FD
:10EF200003614361836108225C30FCF767F9054B9C
:10EF300024626362044BA362044BE362044B2363C9
:10EF400010BDC046C1F70100E9F7010021F801003A
:10EF50004DF8010010B5024900F0BAF810BDC046E6
:10EF600059FB010070B568254A1E55430E00290063
:10EF7000743100F0D1F8041E08D000212A0001608D
:10EF800046600C30A0606832FCF738F9200070BD94
:10EF900010B5024800F0BDF810BDC046BD280020E5
:10EFA00010B5024800F0B6F810BDC046BD280020DC
:10EFB00010B5024800F0ADF810BDC046BE280020D4
:10EFC00010B5024800F0A6F810BDC046BE280020CB
:10EFD00013B50400FFF7ECFFA369002B02D0FFF785
:10EFE000EFFF13BDA364E3642365134B134A1B684F
:10EFF000A2620193A34201D10123A361200000F08A
:10F000001FF86060200000F01BF8A060200000F0F6
:10F0100017F800220421E0606068FFF777FF012203
:10F020000921A068FFF772FF02221221E068FFF7B2
:10F030006DFF0123A361D2E79CFE010055EF0100A3
:10F04000F8B50700FFF7A4FF1F4B1E68B369002B3C
:10F0500002D13000FFF7BCFF4836B4687368013B4B
:10F0600004D53368002B22D03668F6E70C22A55E63
:10F07000002D1AD12000154B5830E360656600F072
:10F0800047F8FFF78DFF2000082229002560A560C2
:10F09000656025616561A5615C30FCF7AFF865636B
:10F0A000A563A564E5642000F8BD6834D7E70421B2
:10F0B0003800FFF757FF041E3060D5D1FFF770FF0F
:10F0C0000C233B60EFE7C0469CFE01000100FFFF00
:10F0D000F7B5040006000027019148346368A5686D
:10F0E0000093009B013B009304D52468002CF5D1CC
:10F0F0003800FEBDAB89012B08D90E22AB5E01336F
:10F1000004D029003000019B984707436835E8E7A1
:10F110007047704770470000F8B50323CD1C9D432E
:10F12000083506000C2D1FD20C25A9421ED8300030
:10F1300000F0DEFD25490A681400002C1AD1244F86
:10F140003B68002B04D12100300000F027FB386021
:10F150002900300000F022FB431C2BD10C2330008F
:10F16000336000F0CDFD03E0002DDEDA0C233360C8
:10F170000020F8BD23685B1B19D40B2B03D9236037
:10F18000E418256003E06368A2420ED10B603000F2
:10F1900000F0B6FD200007220B30231D9043C21A59
:10F1A0009842E6D01B1AA350E3E75360EFE7220032
:10F1B0006468C2E70323C41C9C43A042E1D0211A27
:10F1C000300000F0EBFA431CDBD1C7E7C028002079
:10F1D000C4280020936810B5013B9360002B04DA2B
:10F1E0009469A34207DB0A2905D01368581C1060F4
:10F1F0001970080010BD00F02FFB0100F9E7F8B509
:10F2000006000F001400D518AC4201D1002007E021
:10F2100021783A003000FFF7DDFF0134431CF3D1C1
:10F22000F8BD0000F0B5A1B006000C001F0003926D
:10F23000002804D08369002B01D1FFF7C9FE8E4B53
:10F240009C421CD17468636EDB0705D4A3899B05BF
:10F2500002D4A06DFFF75DFFA3891B0702D52369C8
:10F26000002B1DD12100300000F060FB002817D0DA
:10F27000636EDB070DD50120404221B0F0BD7F4B0E
:10F280009C4201D1B468DEE77D4B9C42DBD1F4683F
:10F29000D9E7A3899B05EED4A06DFFF73BFFEAE712
:10F2A000002308AD6B6120336B761033AB76079784
:10F2B000039F3B78002B01D0252B4ED1039BFB1ADB
:10F2C0000593039B9F420DD0059B21003000039ABC
:10F2D000FFF795FF431C00D1B5E06A69059B944692
:10F2E00063446B613B78002B00D1ACE001227B1CB6
:10F2F0000393002352426A6004A9543252182B60CF
:10F30000EB60AB601370AB65039B052219785D4819
:10F3100000F0E2FC039B5F1C002820D12A68D30682
:10F3200004D5532304A95B1820211970130704D5B1
:10F33000532304A95B182B211970039B1B782A2BDC
:10F3400016D00021EB68039F3A78781C303A844647
:10F35000092A4FD9002911D117E00137A9E7494BF4
:10F360002A68C01A0123834013432B600397CBE71D
:10F37000079B191D1B680791002B01DB0B9304E011
:10F380005B42EB60022313432B603B782E2B0AD1A8
:10F390007B782A2B37D1079B02371A1D1B680792EF
:10F3A000002B2DDB099303223978374800F094FCB9
:10F3B000002807D0344B2A68C01A402383401343E7
:10F3C00001372B6039787B1C06223048039329765D
:10F3D00000F082FC002845D02D4B002B27D10722BE
:10F3E000079B07339343083307936B69049A9B1871
:10F3F0006B615DE70A214B4367469B180939A3E718
:10F4000001235B42CEE700231A0001376B60397895
:10F41000781C30398446092903D9002BC3D00992BE
:10F42000C1E70A235A4367465218093BEFE707AB87
:10F430000093220029003000164B00E000BF04902A
:10F44000049B0133D1D1636EDB0705D4A3899B05EF
:10F4500002D4A06DFFF75EFEA3895B0600D50AE724
:10F460000D980AE707AB0093220029003000094BF2
:10F4700000F082F8E3E7C0460C0102002C01020014
:10F48000EC0002004C010200520102005601020091
:10F4900000000000FFF10100F7B5150001938A6834
:10F4A0000B690C000090934200DA130022002B60DD
:10F4B00043321278002A01D001332B6023689B0667
:10F4C00002D52B6802332B602268062317001F40E9
:10F4D0001A4227D0230043331B785A1E93412268D7
:10F4E000920630D4220001990098089E4332B0471A
:10F4F000431C25D0062320682A68E16800250340C4
:10F50000042B03D18D1AEB43DB171D40A36822693E
:10F51000934201DD9B1AED180027BD4220D1002047
:10F5200010E00137E3682A689B1ABB42D2DD220053
:10F53000012301990098089E1932B047431CF0D16D
:10F5400001204042FEBD3020E11843310870210007
:10F550005A1C45310978A218433202331170C1E7B1
:10F560002200012301990098089E1A32B047431CDB
:10F57000E6D00137D1E70000F0B58BB006920A0063
:10F5800043320793059004920A7E0C00109B782A60
:10F5900007D8622A09D8002A00D1C1E0582A00D130
:10F5A0008CE026004236327022E0100063381528C5
:10F5B000F7D800F02FFC16001F00F6FFF6FFF6FF4D
:10F5C000F6FF1F00F6FFF6FFF6FFF6FFA800360075
:10F5D0009A00F6FFF6FFB900F6FF3600F6FFF6FFD9
:10F5E0009E0026001A684236111D19601368337098
:10F5F0000123A7E0086819680A1D05060BD50D68E8
:10F600001A60002D03DA2D23049A6D421370614BAA
:10F610000A2703931BE00D681A604106F1D52DB24D
:10F62000EFE70D681968081D18602E0601D50D68F2
:10F6300003E06D06FBD50D68ADB2564B082703936A
:10F640006F2A00D002372300002243331A70636808
:10F65000A360002B03DB0422216891432160002D6D
:10F6600002D1049E002B0CD0049E28003900FFF725
:10F6700023FC039B013E5B5C33702B0005009F4223
:10F68000F3D9082F09D12368DB0706D563682269FF
:10F69000934202DC3023013E3370049B9B1B2361A9
:10F6A000079B210000930598069B09AAFFF7F4FE2B
:10F6B000431C4CD1012040420BB0F0BD45310A70D3
:10F6C000344A03921A68216820CA1A60080616D5BF
:10F6D000CB0702D52023194321601027002DB2D17A
:10F6E000202322689A432260ADE7202209680A435A
:10F6F00022602200782145321170274AE1E748064E
:10F70000E6D5ADB2E4E71A680D68101D49691860C6
:10F7100013682E0601D5196002E06D06FBD519802D
:10F720000023049E2361BBE71A68111D1960166847
:10F7300000213000626800F0CFFA002801D0801B61
:10F740006060636823610023049A1370A8E723694B
:10F75000320006990598079DA847431CAAD0236844
:10F760009B0715D4099BE0689842A5DA1800A3E727
:10F770002200012306990598079E1932B047431CC1
:10F7800098D00135E368099A9B1AAB42F0DCE9E7AF
:10F790000025F7E75D0102006E010200002370B54D
:10F7A000064D040008002B6000F05EFB431C03D1F3
:10F7B0002B68002B00D0236070BDC046C8280020F5
:10F7C00070B50C000E25495F00F0ECFA002803DB51
:10F7D000636D1B18636570BDA389024A1340A38142
:10F7E000F9E7C046FFEFFFFFF8B51F008B89050062
:10F7F0000C001600DB0505D50E23C95E002202238E
:10F8000000F0EAF9A389054A28001340A3813200D9
:10F810000E23E15E3B0000F075F8F8BDFFEFFFFF3F
:10F8200070B50C000E25495F00F0D6F9A389421C83
:10F8300003D1054A1340A38170BD802252011343B6
:10F84000A3816065F8E7C046FFEFFFFF10B50E2308
:10F85000C95E00F0E3F810BDF8B505000E00140015
:10F86000002804D08369002B01D1FFF7B1FB224BA4
:10F870009C422ED16C68A369A360A3891B0732D573
:10F880002369002B2FD023682269F7B2981A636985
:10F89000F6B2834205DC2100280000F05DF9002863
:10F8A00027D1A3680130013BA36023685A1C226062
:10F8B0001F706369834204D0A389DB0707D50A2E32
:10F8C00005D12100280000F047F9002811D13000AF
:10F8D000F8BD0A4B9C4201D1AC68CCE7084B9C4276
:10F8E000C9D1EC68C7E72100280000F01FF8002804
:10F8F000C9D001267642EAE70C0102002C01020081
:10F90000EC00020070B50400080011001A0000238A
:10F91000054D2B60FCF766FB431C03D12B68002BC5
:10F9200000D0236070BDC046C8280020374B70B59A
:10F930001D6806000C00002D05D0AB69002B02D11C
:10F940002800FFF745FB324B9C420FD16C680C231B
:10F95000E25E93B211072DD4D90611D409230120F8
:10F96000336037331343A381404270BD294B9C421F
:10F9700001D1AC68EBE7284B9C42E8D1EC68E6E7A4
:10F980005B0713D5616B002908D0230044339942EB
:10F9900002D0300000F0BCF9002363632422A38965
:10F9A0009343A38100236360236923600823A28912
:10F9B0001343A3812369002B0BD1A0218022A389AB
:10F9C000890092000B40934203D02100300000F0E8
:10F9D0003FF90C22A35E01201A0099B202400342B3
:10F9E0000FD00022A26062695242A2610020226907
:10F9F0008242BAD10A06B8D540221343A381013806
:10FA0000B3E7880700D46269A260EFE7B01E002068
:10FA10000C0102002C010200EC000200002370B572
:10FA2000064D040008002B6000F0FEF9431C03D1D2
:10FA30002B68002B00D0236070BDC046C828002072
:10FA4000F7B58B8905000C001A075FD44A68002AB5
:10FA500004DC0A6C002A01DC0020FEBDE76A002FEE
:10FA6000FAD0002280212E682A601A0049010A403B
:10FA70000B4234D0606DA3895B0706D56368C01A5A
:10FA8000636B002B01D0236CC01A0200216A002393
:10FA90002800E76AB847A189431C06D12B681D2BB3
:10FAA00031D82C4ADA40D3072DD50023636023696F
:10FAB0002360CB0405D5431C02D12B68002B00D159
:10FAC0006065616B2E600029C6D0230044339942E3
:10FAD00002D0280000F01CF900206063BDE701237C
:10FAE0002800216AB847431CC5D12B68002BC2D01F
:10FAF0001D2B01D0162B01D12E60ADE74023A2892A
:10FB00001343A381A9E740230B43FAE70F69002FB2
:10FB1000A2D00A680F60D21B019200229B0700D17D
:10FB20004A69A260019B002B00DC95E73A0028009F
:10FB3000019B216AA66AB047002806DC4023012009
:10FB4000A28940421343A38187E7019B3F181B1AF8
:10FB50000193E7E7010040200B6970B505000C0038
:10FB6000002B02D10025280070BD002804D0836935
:10FB7000002B01D1FFF72CFA144B9C421BD16C686F
:10FB80000C22A35E002BEDD0626ED20704D49B053D
:10FB900002D4A06DFFF7BDFA28002100FFF750FF47
:10FBA000636E0500DB07DED4A3899B05DBD4A06D63
:10FBB000FFF7B0FAD7E7064B9C4201D1AC68DFE70C
:10FBC000044B9C42DCD1EC68DAE7C0460C01020031
:10FBD0002C010200EC00020070B5040008001100C6
:10FBE0001A000023054D2B6000F036F9431C03D1A9
:10FBF0002B68002B00D0236070BDC046C8280020B1
:10FC000070B50E001D000E23C95E140096B00029C9
:10FC100008DA0C22B35E00222A601B0611D480236E
:10FC2000DB000FE06A4600F0D1F80028F1DBF0239A
:10FC300001991B021940054BC9184B4259412960D3
:10FC4000EDE740230020236016B070BD00E0FFFF09
:10FC5000F7B502268B8905000C00334206D023003D
:10FC600047332360236101236361F7BD6A4601AB1B
:10FC7000FFF7C6FF009907002800FFF74DFA00289C
:10FC800008D10C22A35E9A05EFD4032293431E43AE
:10FC9000A681E4E70F4BAB628023A2892060134367
:10FCA000A381009B20616361019B002B0DD0280084
:10FCB0000E23E15E00F09CF8002806D00322A38901
:10FCC00093431A0001231343A381A0890743A7810B
:10FCD000CBE7C04655EF0100C9B28218904201D16E
:10FCE0000020704703788B42FBD00130F6E700001C
:10FCF00010B50248FFF70DFA10BDC046BC28002021
:10FD000010B50248FFF706FA10BDC046BC28002017
:10FD100070B50500002910D00C1F2368002B00DAF5
:10FD2000E4182800FFF7E4FF1D4A1368002B05D1F3
:10FD3000636014602800FFF7E3FF70BDA34208D999
:10FD4000216860188342F3D118685B68411821600C
:10FD5000EEE71A005B68002B01D0A342F9D91168C5
:10FD60005018A0420BD12068091850181160834226
:10FD7000E0D118685B68411811605360DAE7A0426F
:10FD800002D90C232B60D5E721686018834203D188
:10FD900018685B684118216063605460CAE7C04618
:10FDA000C028002070B50400080011001A000023CC
:10FDB000054D2B60FCF724F9431C03D12B68002B65
:10FDC00000D0236070BDC046C8280020002370B555
:10FDD000064D0400080011002B6000F02DF8431CB4
:10FDE00003D12B68002B00D0236070BDC8280020F1
:10FDF000002370B5064D040008002B6000F024F8C5
:10FE0000431C03D12B68002B00D0236070BDC0467B
:10FE1000C828002003B47146490840004900095E23
:10FE200049008E4403BC704758220120014B4042D8
:10FE30001A607047C828002058220120014B404218
:10FE40001A607047C82800205822024B00201A6010
:10FE50007047C046C828002058220120014B40426C
:10FE60001A607047C8280020044A03001068002860
:10FE700002D0C318136070470148FAE7CC2800206D
:10FE8000D0280020F8B5C046F8BC08BC9E46704794
:10FE9000F8B5C046F8BC08BC9E467047B41E0020AA
:10FEA0004C1F0020FFFFFFFFFFFFFFFFFFFFFFFFD3
:10FEB000FFFFFFFF000000000000000000E0D7018E
:10FEC000030000001112131415161718AED101000B
:10FED00036D1010036D1010088D101002AD20100BB
:10FEE00060D101000CD201001AD20100F0D0010053
:10FEF0000CD10100F0D001000CD10100A0D1010013
:10FF0000B0D00100B0D00100B0D00100B0D00100ED
:10FF1000B0D00100BCD10100CAD10100DED1010086
:10FF2000F2D101002AD101002AD101001100030001
:10FF3000ADD2010012000300ADD201001300030096
:10FF4000ADD2010014000300ADD20100502000200A
:10FF500074200020A820002054686520646576691C
:10FF600063652068617320746865204E6F726469F0
:10FF700063205541525420536572766963650D0ABA
:10FF800000000000446973636F6E6E65637465649E
:10FF90000D0A0000436F6E6E656374696E672074AE
:10FFA0006F20746172676574202530327825303295
:10FFB0007825303278253032782530327825303245
:10FFC000780D0A00436F6E6E656374696F6E205220
:10FFD0006571756573742074696D6564206F7574DF
:10FFE0002E0D0A0048D8010022D8010022D80100B5
:10FFF00068D8010022D8010022D8010022D80100CF
:020000022000DC
:1000000022D8010022D8010022D8010022D8010004
:100010007AD8010022D8010090D8010022D801002E
:100020003AD9010022D8010022D8010022D80100CB
:1000300022D8010022D8010022D8010022D80100D4
:1000400022D8010022D8010022D8010022D80100C4
:1000500022D8010022D8010022D8010022D80100B4
:1000600022D8010022D8010022D8010022D80100A4
:1000700022D8010022D8010022D8010022D8010094
:1000800022D8010022D8010022D8010012D8010094
:10009000556172745F63205363616E207374617283
:1000A0007465640D0A0000000B00000009000000E8
:1000B000080000000A0000000000000000502700B7
:1000C0000100000710003C0000009001010000004A
:1000D00000000000A0005000000000009ECADC24C8
:1000E0000EE5A9E093F3A3B50000406E0000000008
:1000F0000000000000000000000000000000000000
:1001000000000000000000000000000000000000EF
:1001100000000000000000000000000000000000DF
:1001200000000000000000000000000000000000CF
:1001300000000000000000000000000000000000BF
:10014000000000000000000000000000232D302B04
:100150002000686C4C0065666745464700303132C8
:10016000333435363738394142434445460030311F
:10017000323334353637383961626364656600007E
:04018000000000007B
:0801840084AFFF7F01000000C1
:10018C00B41E0020000000000C0102002C01020033
:10019C00EC00020000000000000000000000000065
:1001AC000000000000000000000000000000000043
:1001BC000000000000000000000000000000000033
:1001CC000000000000000000000000000000000023
:1001DC000000000000000000000000000000000013
:1001EC000000000000200040000000000024F4008B
:0801FC00E9B00100C1B00100EF
:040000031000E819E8
:00000001FF
