:020000021000EC
:10B000000080002061E60100A1E60100A3E6010046
:10B010000000000000000000000000000000000030
:10B02000000000000000000000000000A5E6010094
:10B030000000000000000000A7E60100A9E60100F2
:10B040003DCD0100ABE6010001D80100ABE60100F7
:10B05000ABE6010000000000C1CE0100ABE601003C
:10B06000ABE60100ABE60100ABE60100ABE6010098
:10B07000ABE60100ABE60100ABE60100ABE6010088
:10B08000ABE6010029C30100ABE60100ABE601001D
:10B0900005C40100ABE6010049E90100ABE601008F
:10B0A000ABE60100ABE6010000000000000000007C
:10B0B0000000000000000000000000000000000090
:10B0C00010B5064C2378002B07D1054B002B02D07E
:10B0D000044800E000BF0123237010BD301F002092
:10B0E000000000009CFD0100044B10B5002B03D0B4
:10B0F0000349044800E000BF10BDC0460000000046
:10B10000341F00209CFD0100402292029A1A9246B0
:10B110007047C046174B002B00D1134B9D46FFF7DD
:10B12000F3FF00218B460F461348144A121A00F011
:10B1300065F80E4B002B00D098470D4B002B00D02C
:10B1400098470020002104000D000D48002802D07F
:10B150000C4800E000BF00F02DF82000290000F0AE
:10B16000EFF900F011F8C0460000080000000000F0
:10B170000000000000800020301F0020E828002090
:10B180000000000000000000084B10B50400002B78
:10B1900002D0002100E000BF054B1868836A002B35
:10B1A00000D09847200000F031F8C04600000000B1
:10B1B00038FB010070B500260C4D0D4C641BA4102B
:10B1C000A64209D1002604F0ABFC0A4D0A4C641BD0
:10B1D000A410A64205D170BDB300EB5898470136C4
:10B1E000EEE7B300EB5898470136F2E7241F002042
:10B1F000241F0020241F0020281F00200300821885
:10B20000934200D1704719700133F9E7FEE7C04659
:10B2100048DF704775DF704776DF70477FDF704724
:10B220008ADF70478CDF704710B50100014800F0DD
:10B2300081FC10BD2023002070B50378012B04D0C1
:10B24000022B02D0002B04D070BD406801F016F82C
:10B25000FAE70A4C0A4D2078281801F0CFFC237831
:10B26000DBB2EB5C0A2B04D023780133DBB2237012
:10B27000EAE70122034B1A70F6E7C046BC20002023
:10B28000942000203023002070B50B7805000C00BE
:10B29000022B04D0032B4AD0012B1ED070BD0B7A99
:10B2A0000025002B09D06368585D01F0C7FC002819
:10B2B000F9D1237A0135AB42F5D80D2001F0BEFC5F
:10B2C0000028FAD10A2001F0B9FC0028E6D00A20B3
:10B2D00001F0B4FC0028F5D1E0E70A0049880A3201
:10B2E00000F01EFF002833D1280000F02BFF0028BB
:10B2F0002BD1224C224D200003F014FC210082B2FD
:10B30000280000F041FF0028F5D11E4B1E491A68A5
:10B310001E4BC046C046C046C046C046C046C0469A
:10B32000C0468A4200D0C046013BF2D1B6E7184879
:10B3300000F0A6FC174C2378022B0CD0164D2B786E
:10B34000002B10D001232370A8E700F097FFD0E76F
:10B3500000F094FFC8E70A4B13215888FFF75CFF01
:10B3600000230D4D2B700D48FFF75AFF002802D126
:10B3700001232B70E6E700F081FFF9E73CFB0100B9
:10B3800020230020201F00200024F4001098020039
:10B39000DC1F0020362400203424002084FC01001F
:10B3A00070B5038805003A2B4DD80F2B41D9103BBF
:10B3B0009BB22A2B3DD8574A9B00D3589F463D202D
:10B3C00001F03CFC0028FAD1534E3389002B09D000
:10B3D00000243319987A01F031FC01343389A4B286
:10B3E000A342F6D80D244D4E200001F027FC002882
:10B3F000FAD174780136002CF6D10222484B494C20
:10B400001A702000A98802F0ADFC002812D000F0CC
:10B4100035FF0FE0444800F033FC414C2378022B09
:10B420005DD0424E3378002B61D00123237000237E
:10B4300023703C4C2900200002F0D4FC29003C4839
:10B4400000F0E0FB70BD552BF3D11321A888FFF766
:10B45000E3FE00280ED1344800F012FC304C237873
:10B46000022B0AD0314E3378002B0ED001232370EB
:10B470002C4CDFE700F002FFEDE72D4B132158883D
:10B48000FFF7CAFE0023294E33702A48FFF7C8FE93
:10B49000002834D101233370E8E7002300228521FE
:10B4A0008088FFF7BBFE1F4CC4E7037A022B29D02C
:10B4B000032BBED1204803F01BFBCCE71A49021D29
:10B4C00000F09EFC174CB5E7290080880831FFF793
:10B4D000A1FE0028ADD000F0D1FE124CAAE7144B1B
:10B4E00013215888FFF798FE0023104E337011483F
:10B4F000FFF796FE002809D10123337095E700F08D
:10B50000BDFEC7E70D4803F0F3FAA4E700F0B6FE6E
:10B51000F2E7C04670FB0100A8200020B4FC010047
:10B5200036240020C0200020DC1F0020342400200E
:10B530002023002084FC010058FB010048FB01008F
:10B54000F0B5DE4657464E4645460022E0B5B74BBD
:10B550008DB01A70032100230020B54A01F0F2F9E2
:10B56000002800D066E20C22002108A8FFF746FE62
:10B570000B22092306920793AE4BAF4A0B93AF4BB6
:10B580000492029380235B0003930593AC4AFD3B36
:10B5900002A906A801F0D2FA002800D047E2A94883
:10B5A00002F05EFB002800D03EE2A74B48221B6859
:10B5B000A6490193029302A8002303F06DF9002825
:10B5C00000D02EE20021012006AA03F0D5F90028C0
:10B5D00000D023E206A803F0E7F9002800D01AE221
:10B5E0009B4803F0A7F9002800D011E2994B06A967
:10B5F0000693994B18009A4600F06EFA002800D086
:10B6000003E2002001F08CFB944B954D99460023FA
:10B610009846944FFFF7FCFD00282AD12B78012B88
:10B62000F8D1914B1A78D3B2242A2CD0242B3AD8B3
:10B63000212B00D077E043462B708B4B5B780A2B95
:10B6400000D173E04B461B78002B00D16EE04B46D7
:10B650001B78DCB2012B00D19EE04B461B78022BFD
:10B6600000D1C6E04246814B1A70FFF7D1FD002899
:10B67000D4D000F003FE2B78012BCBD17A4B1A7873
:10B68000D3B2242AD2D143464324794E2B702000D2
:10B6900001F0D4FA0028FAD174780136002CF6D1E2
:10B6A000724B1C70B6E73F2B01D07D2B39D14B4636
:10B6B0001B78022B60D16F4B1B78DAB2002B5BD169
:10B6C000694B6C491B78DBB20B702A700A78D3B2D5
:10B6D0003F2A08D07D2B39D0262BC3D108006649DC
:10B6E00000F0A0FDBEE7380003F01CFA390082B27A
:10B6F000504600F049FD0028F5D1604B60491A68BA
:10B70000604BC046C046C046C046C046C046C04664
:10B71000C0468A4200D0C046013BF2D1554B18705A
:10B72000A0E7262BC3D043462B7073E7564800F0A2
:10B73000A7FA4B461B78022B0DD0544B1B78002BDD
:10B7400011D001234A46137013708BE708004A4951
:10B7500000F03CFD86E7534613215888FFF75CFD57
:10B7600042464A4B1A704A48FFF75AFD002859D101
:10B770000123464A1370E4E743464524454E2B70A7
:10B78000200001F05BFA0028FAD174780136002C11
:10B79000F6D1364B1C703DE7334B18780A2800D1A0
:10B7A0002EE11A0011000132030010780A28F9D1A5
:10B7B000212B12D000200BE0303B6343A200013963
:10B7C000C018A2180B78520080B2D4B2212B65D0D9
:10B7D0001A00313AD2B2082AEED94E242E4E200059
:10B7E00001F02CFA0028FAD174780136002CF6D139
:10B7F00038E71E4B1C4A1B78013BD35C0A2B04D054
:10B800001A4B1B78132B00D82CE7174B5C1C174BDB
:10B8100021001A785046023A92B200F0B5FC002896
:10B82000F5D11FE700F02AFDA2E7C046352400202D
:10B830004C1F002000E0D7013824002034230020D2
:10B8400039B2010029B2010078FC0100941F0020E8
:10B85000A1B3010089B2010020230020362400207A
:10B860003023002070FC010094200020BC20002028
:10B8700054FC010037240020141F0020201F00204A
:10B880000024F40010980200DC1F00203424002063
:10B8900084FC010064FC01001CFC0100441EA3B2F6
:10B8A000092B9AD83C23854AD25C904200D99BE070
:10B8B000002A00D198E00223814A814913707F4B0E
:10B8C0007F4E1B5D53707D4B1B199A7A8A701A7DCF
:10B8D000CA709A7F0A711A002832127832334A717C
:10B8E0000C221B788B711100744B61439C466144A0
:10B8F000CB8F8B463381002B70D042436F4834325C
:10B900008446624416006E480A300643310007261A
:10B91000314200D091E0591E082900D88DE011680D
:10B9200052688C46664666494E818280310C120C04
:10B93000C2804180072218009043C2B283424DD09A
:10B940005F49881859468918403109788172511C1D
:10B95000C8B2C9B28B4241D959490E180C21614372
:10B96000564CA4466144081840300078941CB072CC
:10B97000E0B2E4B2A34231D9514C24180818403047
:10B980000078A072D41CE0B2E4B2A34226D94C4C99
:10B990002418081840300078A072141DE0B2E4B2F8
:10B9A000A3421BD9464C2418081840300078A072D6
:10B9B000541DE0B2E4B2A34210D9414C063224181F
:10B9C000081840300078A072D0B2D2B2934205D9A4
:10B9D00009183B4B40310A781B189A72394A3A4988
:10B9E0003748FFF71FFC3DE64E24384E200001F09B
:10B9F00025F90028FAD174780136002CF6D131E609
:10BA0000334B591E0B78DBB2D2E600F037FCF8E579
:10BA100000F034FCEAE500F031FCE1E500F02EFC3A
:10BA2000D8E500F02BFCCDE500F028FCBDE500F0EA
:10BA300025FCB4E500F022FC95E50C221F49624389
:10BA40008C4662441100403109781D488172012BF7
:10BA5000C4D0110041310978C172022BBED011004F
:10BA6000423109780173032BB8D0110043310978B2
:10BA70004173042BB2D01100443109788173052B36
:10BA8000ACD0110045310978C173062BA6D0110046
:10BA9000463109780174072BA0D01100473109788D
:10BAA0004174082B9AD01100483109788174092B10
:10BAB00094D049321378C37490E7C046DC1F00204D
:10BAC000A82000207CFC010084FC010038FC01005F
:10BAD0009420002063DF704730B504000D0083B070
:10BAE00000281CD000291AD001000E48FFF7F2FFF1
:10BAF000002811D16A46237801A893710A4B9380DC
:10BB000001235B4263802B68E3600023A3802381D1
:10BB100002F0BEF803B030BD00F0B0FBEAE70E2043
:10BB2000F8E7C04694FC01002022000098DF70472F
:10BB300064DF7047F0B5DE46454657464E460C007A
:10BB4000E0B585B00500102200216846FFF756FBDE
:10BB50002378002B03D1284BA2889A4206D005B047
:10BB6000F0BCBB46B246A946A046F0BDA2792B78F0
:10BB70009A42F4D1207A002832D06B46DB89002229
:10BB800099466B465B8990469B466B469B899446DB
:10BB90009A462300194F1A4E0E3309E0B14203D1E1
:10BBA0001989894601218C4601321233824209D219
:10BBB0001988B942F2D119898B4659898A460121DF
:10BBC0008846F1E76346002B02D06B464A46DA818D
:10BBD0004346002B04D06B465A465A8152469A81FE
:10BBE000EB68002BBBD06946628828004A8001229E
:10BBF0000A709847B3E7C0462022000021220000C7
:10BC00002222000010B584B0002813D0002911D0E2
:10BC100043881A4A93420FD08A889A420AD10B88E5
:10BC2000112B12D0392B05D18388002B02D08A89A1
:10BC30009A4214D004B010BD0A88112A02D0392AC1
:10BC4000F8D1F1E78A889A42F4D1C368002BF1D089
:10BC5000032269460A70043A42809847EAE7C368BB
:10BC6000002BE7D06C46022222700A0012320192A9
:10BC70000A8A694622729847DCE7C046FFFF000047
:10BC80003C23C15C10B5002922D00400030000222F
:10BC90003C341A70012918D05A70022915D09A70B4
:10BCA000032912D0DA7004290FD01A7105290CD09B
:10BCB0005A71062909D09A71072906D0DA71082924
:10BCC00003D01A72092900D05A720A33A342E0D174
:10BCD0003C230022C25410BDF0B557464E4645469F
:10BCE000DE46E0B585B00B000A00019109218C46C3
:10BCF000624492461A7A81460027D20803AD002A90
:10BD00000BD150E0191F01294FD9063B012B35D922
:10BD100043460133FF18BA4245D95346DB5D984686
:10BD20005346DB195B78991E0129EBD843465B0823
:10BD30009B46EDD0019B3C009C460B34002664449E
:10BD400003E0013602345E4525D22A00210002209C
:10BD5000FFF7EEFE0028F4D14B462A881B889A4252
:10BD6000EFD14B46AA789B789A42EAD1012005B0E0
:10BD7000F0BCBB46B246A946A046F0BDB91C2A009D
:10BD800010205144FFF7D4FE002804D14B462A88E6
:10BD90001B889A422AD0019B1A7AD2084346013363
:10BDA000FF18BA42B9D80020E1E743469B089B46FA
:10BDB000AED0019B3C009C460B340026644403E05B
:10BDC000013604345E45E6D22A0021000220FFF746
:10BDD000AFFE0028F4D14B462A881B889A42EFD147
:10BDE0004B46AA789B789A42EAD1BFE74B46AA789D
:10BDF0009B789A42BAD0019B1A7AD208CEE7C04605
:10BE0000F0B557464546DE464E46E0B5140085B0CF
:10BE1000BC4B02AA93800123277B0D0003A8211DA0
:10BE20009371FF08FFF758FF002853D03C23EA5CCA
:10BE30000192092A4ED800230021002A57D09A00E7
:10BE4000D2185200AA18525CE018944642799445E0
:10BE500048D1052B3ED0581CC0B2820012185200A7
:10BE6000AA18525C261894467279944539D105284F
:10BE700030D0981CC0B2820012185200AA18525C2E
:10BE800026189446727994452BD1052822D0D81CC7
:10BE9000C0B2820012185200AA18525C26189446AA
:10BEA000727994451DD1052814D00433DBB2E01813
:10BEB00084469A00D2185200AA18505C6246527901
:10BEC00090420FD1052B05D06B1832331A78A37A24
:10BED0009A423BD105B0F0BCBB46B246A946A0464B
:10BEE000F0BD030001310198CAB29042A7D8002FDB
:10BEF0000BD0210000230D31C8184678CA5C092EEA
:10BF00002BD001329B189F42F6D87F4802F0F0FDFB
:10BF10000B217E48615602F0EBFD637901982B54AA
:10BF2000A2792B189A72E27901301A75227A9A77DF
:10BF30001A00617A28321170A27A32331A703C23C7
:10BF4000C1B2E954724802F0D3FDC3E70131019A4E
:10BF5000CBB29A42CBD9052371E79E1CB24696B26A
:10BF6000B046019EA9467700BE19B600B446E1442A
:10BF70004E46013A92B2F287002A4DD00F26B146C2
:10BF80003136B346DC44AC44664699441033E3187A
:10BF9000F31A0226B3469B459B415B429B464346B0
:10BFA0000636B046023B9BB298459B415E465B42DB
:10BFB000A144334254D04B46664633439B074FD18E
:10BFC0004846006893083060012B02D0484640681C
:10BFD000706003231000984313421DD08A445346D7
:10BFE0001B5C9C466646019BFB189B00EB181918CE
:10BFF00040310E70411C89B28A420DD9564602303A
:10C00000765C5918403180B20E70824204D9524693
:10C01000125C1818403002703E4802F069FD019B26
:10C020009C466744BF00B846A8444346DB8F002BBC
:10C0300012D0394B00279A463E2343449946434643
:10C04000DB1940331978504602F052FD4B46013758
:10C050001B88BFB2BB42F2D8304802F049FD57E717
:10C060005346CB5C9C46019B6646FB189B00EB1835
:10C07000190040310E70012ACED0C1788C461900CB
:10C08000664641310E70022AC6D001798C461900ED
:10C09000664642310E70032ABED041798C461900A3
:10C0A000664643310E70042AB6D081798C46190059
:10C0B000664644310E70052AAED0C1798C4619000F
:10C0C000664645310E70062AA6D0017A8C461900C4
:10C0D000664646310E70072A9ED0417A8C4619007A
:10C0E000664647310E70082A96D0817A8C46190030
:10C0F000664648310E70092A8ED0C27A49331A70CA
:10C100008AE7C04620220000A8FC0100C0FC010014
:10C11000C8FC0100A4FC0100BCFC0100B8FC01004B
:10C1200000280CD04180002A07D05388C380138890
:10C13000838093880381002070470020FCE70E2055
:10C14000FAE7C04600B5030085B0002818D0408843
:10C150000C4A904212D0DB88002B0FD06946012296
:10C160000A800222CB808023FF328A809B020391C7
:10C1700001A90293FFF7DAFC05B000BD0820FBE738
:10C180000E20F9E7FFFF000030B503000C0085B07A
:10C19000002817D0142A11D840880B4988420FD0A4
:10C1A000812501A96D000D801B89CA804B80002369
:10C1B0008C608B80FFF7BAFC05B030BD0720FBE731
:10C1C0000820F9E70E20F7E7FFFF000070B5060032
:10C1D0000F4C104D200002F0A5FC210082B2280077
:10C1E000FFF7D2FF0028F5D10B4B0C491A680C4B16
:10C1F000C046C046C046C046C046C046C046C0460F
:10C200008A4200D0C046013BF2D1307070BDC046BA
:10C21000D0FC010020230020201F00200024F40077
:10C220001098020070B506000F4C104D200002F06F
:10C2300079FC210082B22800FFF7A6FF0028F5D183
:10C240000B4B0C491A680C4BC046C046C046C04652
:10C25000C046C046C046C0468A4200D0C046013BE8
:10C26000F2D1307070BDC046E0FC010020230020F8
:10C27000201F00200024F40010980200002300B5C5
:10C2800085B001AA9060002103481380536000F03C
:10C2900005F805B000BDC04601400000BFF34F8F58
:10C2A000034B044ADA60BFF34F8FC046FDE7C04638
:10C2B00000ED00E00400FA0510B500290ED0002AB8
:10C2C0000AD01400531E1C401A4205D1846001603C
:10C2D0008380C460002010BD0920FCE70E20FAE72F
:10C2E000030010B59C888068DA68121A0420944212
:10C2F00007D30020DA6814401A681155DA68013251
:10C30000DA6010BD8268C3689A420AD08368828866
:10C3100013400268D35C0B70836801338360002094
:10C3200070470520FCE7C046A021F0B50023C646B3
:10C330002B4A490000B55350043153500431535037
:10C34000043153504C39535004315350254B1B6822
:10C35000002B35D0244900265458244A244F126813
:10C36000A41A002224029046240A02E0002D18D0CC
:10C370002B001A68A24214D8A41AB6181A7CDD69D8
:10C38000002AF3D0424699691A745A693B68002B17
:10C3900019D0100098470028E8D0FFF76FFF002D54
:10C3A000E6D11449144A0B7812789A420ED0134AF7
:10C3B0009B009E5080218023114A5B004903D1508D
:10C3C00080BCB846F0BD08009047CFE70132D3B239
:10C3D000022B01D00B70EAE700230B70E7E7C046A1
:10C3E00000100140582500200405000054250020BD
:10C3F0003825002051250020502500204825002008
:10C4000000E100E0F0B54546DE4657464E46E0B551
:10C41000CB4BCC4A1B68CC499846CC4B8DB01B68A3
:10C42000097807931378994200D167E10133DBB2B1
:10C43000022B00D160E11370C54A9B009C58434613
:10C440001B191B021B0A9B465A46BD4B1A60C14B67
:10C4500009931E785B780393B34200D15BE101231B
:10C460000493099B59465A689B7892460193BA4BAC
:10C4700000250A931B785746089305930023A4468A
:10C48000B1460B91079A3100039E069302934B002D
:10C490005B18DB00F818824601310198C9B2081A0E
:10C4A000441EA041FB5C40420140022B00D1B8E099
:10C4B000032B07D1002A05D01574D269002AFBD1BD
:10C4C00001230693B142E2D1029BBA4664464E462E
:10C4D000002B00D0C6E1069B002B08D09B4B1A60B6
:10C4E000079B07929B1A591E8B41DBB20693049B54
:10C4F0000025002B00D017E100239C46079F0293E4
:10C500000593002D2FD028006968AB68ED695A4665
:10C51000924C8A1A1202120AA24256D8D318036009
:10C52000624642608260012202746246C261002F4C
:10C5300067D03C683A009C425CD2A846814603E042
:10C540001168994261D20C001500D26918001B1BBA
:10C55000002AF5D14846A946454603604B46C261CC
:10C56000D861002DCFD1039B9E4200D126E15146D8
:10C5700073009B19019A0136F6B2B21A501E82411D
:10C58000DB00CC18CB5C52421640012B66D16068B0
:10C59000027C002A62D18A46A16890464160E36825
:10C5A00083602269C2606269089C826101220592EF
:10C5B000002CACD04246002142605A4605948A1AAB
:10C5C000664C1202120AA242A8D95A46511A09020E
:10C5D000090A994202D25B1A0360A1E7634603602D
:10C5E00043608360012303746346C361002F08D056
:10C5F00000233C68E31A3B600123C76102930700F4
:10C600007FE70123070002937BE704912900454659
:10C61000804648468946049909194446091B116019
:10C620009BE753465868002A00D14BE7904200D15F
:10C6300029E113001C00DB69002B00D142E798427E
:10C64000F8D1A0424CD01868DB698246E361002B28
:10C6500000D137E718685044186033E7039BB342B2
:10C6600086D11A00099B1A70029B002B00D19FE013
:10C67000364B1F60079B9F4202D1069B002B25D0A3
:10C68000002F00D108E1364A3648374C81585A46C7
:10C690008A1A12022578120A3B680332002D00D153
:10C6A00093E0934226D3A8245B442E481B021B0A26
:10C6B0002B4DE400035142595B1A521A1202120A1E
:10C6C0001B0203321B0A9A4200D9A4E000230A9AF3
:10C6D00013700DB0F0BCBB46B246A946A046F0BDF3
:10C6E000D269002A00D1B1E003689A46C3690120EB
:10C6F0000690AFE71300D6E700239CE6154B09939D
:10C700001E785B7803939E4200D1F9E00023C34674
:10C7100000240493A5E6099B5A689B7892460193EE
:10C720000D4B0A931B780893079B002B00D1F5E073
:10C73000002247460021002500209446B04629E00B
:10C740005425002050250020512500205825002088
:10C75000482500203C25002044250020FEFF7F00C6
:10C76000040500000010014045250020A41A80188F
:10C770006246DE681A60DA69002E06D0DD611D00AF
:10C7800039180902090A59609E600121002A00D166
:10C7900071E013001A68A242E8D94646002902D087
:10C7A000604907930B60121B1A6001230693A3E6EE
:10C7B000069B079F002B00D188E761E7059B002BB4
:10C7C00000D151E7099B1E704EE78025D1266D02EE
:10C7D000B6008551403E8551C0278026524DB60295
:10C7E0007F00EE512E60012505605048504F0668CD
:10C7F0002F20C046C046C046C046C046C046C046C0
:10C80000C046BE4200D0C0460138F2D125709342E6
:10C8100000D348E76EE7435945490351434B1A6833
:10C820002F23C046C046C046C046C046C046C0468C
:10C83000C0468A4200D0C046013BF2D1802380210D
:10C84000394A5B008902D15040E7140001220020E0
:10C85000384B9A600B900130069223000022029020
:10C860000590F0E60A99059B33480B700B990893E5
:10C870008B4601602FE62B4B46461A600023079338
:10C880000133069338E6D0690028DED01300140087
:10C89000020001200690D6E680218023224A8902E8
:10C8A000D1508023D2210124224A5B0289005350B7
:10C8B000403953501D4B546019682F231C481D00EC
:10C8C000C046C046C046C046C046C046C046C04638
:10C8D000814200D0C046013DF2D19460164A1760F3
:10C8E000C046C046C046C046C046C046C046C04618
:10C8F000814200D0C046013BF2D1104B1F70E5E6EB
:10C90000099BC3465A689B78924601930C4B0025BD
:10C910000A931B78089300230693EDE50123002575
:10C920000693E9E55825002000E100E0201F0020E3
:10C930000024F4000010014054250020452500206B
:10C9400044250020F0B5DE4657464E4645460324B2
:10C95000E0B5070020009B461040224200D068E06E
:10C96000002A00D165E080268025334CB60266514E
:10C97000D2238026314D76029B00EE50403BEE5094
:10C9800001232F4E6B60994633682F269C462D4B12
:10C9900098463300C046C046C046C046C046C04662
:10C9A000C046C046C44500D0C046013BF2D14B460C
:10C9B000AB60C046C046C046C046C046C046C04642
:10C9C000C046C44500D0C046013EF2D15B461E4E73
:10C9D00030701E4E336000261D4B188099705A60CF
:10C9E0001C4B802218601C4BC5211E701B4B520330
:10C9F0001E70C023FF265B00E25089006358B343DA
:10CA00003F3E33436350A123DB0022600439EF50E3
:10CA10006358134A1A40C0231B0213436350114B3F
:10CA2000EA58114B1A60F0BCBB46B246A946A04674
:10CA3000F0BD0720F7E7C04600E100E0001001402C
:10CA4000201F00200024F400452500203825002068
:10CA50003C2500205825002050250020512500208D
:10CA6000FF00FFFF040500005425002030B50478C6
:10CA700085B0012C05D0022C2ED0002C1DD005B085
:10CA800030BD4368264D19782800FFF729FC00289F
:10CA900031D1AA68EB689A4205D002AB1870214BDD
:10CAA00002A81B689847A968AA88EB685B1A9A4293
:10CAB0002FD201221C4B1A70E1E71C4C1C482100AC
:10CAC000FFF720FC00281ED0032302AA1370154B89
:10CAD00010001B689847D2E702AB1C70C3680122A4
:10CAE000144915480193039300F090FD0D4B02A8E3
:10CAF0001B689847C3E702AB1C700A4B03901B6886
:10CB000002A89847CFE7012221000B4800F0F0FC73
:10CB1000B5E701220749084800F078FDAFE7C046B5
:10CB2000602500205C25002070250020882500203D
:10CB30007425002084250020181F0020F0B51E0059
:10CB4000264B05000C0089B01A60002943D08A8862
:10CB500023480968FFF7B0FB002801D009B0F0BDF9
:10CB6000A289A1681F48FFF7A7FB0028F6D16946F4
:10CB70000B001D4A91CA91C391CA91C311CA11C336
:10CB80006B698B612B7C0E775A1E93410B756B7C06
:10CB90005A1E93410E225B4213404B756B68009303
:10CBA0002B680193EB680293AB6803930F4C104A18
:10CBB000200000F0F5FB0028D0D10E4B18702B6838
:10CBC0000133CBD0200000F0FDFD012220000A49F6
:10CBD00000F01CFDC2E70720C0E7C0465C2500202E
:10CBE0006025002074250020E4FC0100181F0020AF
:10CBF0006DCA0100702500208425002070B50B4D02
:10CC000001000B482E78FFF77DFB0400002E01D1B8
:10CC1000200070BD00230122064907482B7000F058
:10CC2000F5FC0028F4D0FFF729FBF1E77025002080
:10CC30006025002084250020181F0020F8B50E4D27
:10CC400001002800FFF74CFB041E01D02000F8BDB6
:10CC50000A4E300000F0CCFC0028F7D1084F280025
:10CC60003900FFF74FFB0028F0D1012239003000D6
:10CC700000F03EFC0400E9E774250020181F0020A6
:10CC800088250020F0B5EFF3108172B60A4B5A6880
:10CC9000002A0DD101248025084E5C607459084F8C
:10CCA0003C401C6077510270002900D162B6F0BD93
:10CCB00001230370F8E7C0468C25002000E100E066
:10CCC000FC06FFBC10B5084B5A68002A0BD00028A0
:10CCD00009D1EFF3108272B604491C680C605860E9
:10CCE000002A00D162B610BD8C25002000E100E0D2
:10CCF00070B5161E07DD0C008D1820780134FFF783
:10CD00009DFFAC42F9D1300070BDC04610B50C009B
:10CD10002000FFF773FF0528FAD0012010BDC046A0
:10CD2000044BA0211A5C01239340034AC9058B5090
:10CD30007047C04604FD01000C05000010B51A4BF9
:10CD40001A68002A14D0002280211A60C22201230E
:10CD5000164CC90592008B506370A368002B07D056
:10CD60001A6800205B68A2609847A368002BF7D17F
:10CD70000F4B1A68002A15D000221A608022C223A5
:10CD800002219B00D205D1500123084CA3702369D6
:10CD9000002B07D01A6801205B682261984723693D
:10CDA000002BF7D110BDC0460001004094250020A3
:10CDB0000401004010B500280BD1064CA368002BDD
:10CDC00007D01A6800205B68A2609847A368002B10
:10CDD000F7D110BD9425002010B582B06A4600231B
:10CDE000D01DD371FFF74EFF144C2378002B0AD0CF
:10CDF000E3680133E3600123A3706B46D879FFF742
:10CE000061FF02B010BD6360A3602361E3600C4B5F
:10CE10001B68DB070CD501F039FD002805D1802205
:10CE2000A3230121D205DB00D15001232370DFE7CA
:10CE30000321002000F006F8EDE7C046942500200D
:10CE400000E100E0F0B500281EDB1B4B84089C4687
:10CE50000323C2B21840FC331F00C026C000890162
:10CE600087400B408340A4006444B600A559BD43ED
:10CE70002B43A3511F231A40C0211E3B93400E4A4F
:10CE8000490053501360F0BD0C4C0325A4460F23FA
:10CE9000FF240340C2B228402500C000890185401C
:10CEA0000C408440083B9B089B006344DE69AE4312
:10CEB0003443DC61DEE7C04600E100E000ED00E065
:10CEC000F0B55746DE464E4645460021E0B5C74A16
:10CED00087B0039113680027012B00D194E1C44B64
:10CEE0001A68012A00D174E1C24B1A68012A00D1E4
:10CEF00063E1C14B1A68012A0DD0C04B1A68012AA0
:10CF000000D18CE1002F1ED107B0F0BCBB46B24669
:10CF1000A946A046F0BDC122B9499200895808220D
:10CF20000A42EAD000211960B44B17431A68012A5B
:10CF300009D11960A022A223D205DB00D3580393A4
:10CF400080231B061F43A223DB0099460323AD4C1D
:10CF50009B461C33A046012600259A463E4211D02E
:10CF6000A74AAB0094464A466344985899584346AA
:10CF70001B68002B06D05A46090C11405246000A85
:10CF80001040984704239C4601357600E044042D68
:10CF9000E4D1002FB8DA0023C02607250493013B13
:10CFA00005934023E1564B1C3ED0C9B20800B04364
:10CFB000C3089C462A00012367460A40934005AAFD
:10CFC000D25D134230D08A0993462218203212785B
:10CFD00052B29200A2589146002A00D1A5E15A46C9
:10CFE000032A00D1A5E1A027FF05B846820090449E
:10CFF000E0224746D200BA5803AF9203910F62462F
:10D00000BA5C13420DD002290ED15B46032B00D12E
:10D01000AFE1002398464B46002B07D05946C8473E
:10D0200004E0032900D18DE1002398464123E15615
:10D030004B1C38D0C9B20800B043C3089C462A0034
:10D04000012367460A40934005AAD25D13422AD0C5
:10D05000221820321278890952B29200A258019106
:10D060009146002A00D13CE1032900D13CE1A027F0
:10D07000FF05BA4682009244E0225746D200BA58D1
:10D0800003AF9203910F6246BA5C134200D10CE1E8
:10D09000022908D1019B032B00D16EE14B46002BE6
:10D0A00001D00199C8474223E1564B1C38D0C9B280
:10D0B0000800B043C3089C462A00012367460A4083
:10D0C000934005AAD25D13422AD02218203212784A
:10D0D000890952B29200A25801919146002A00D1CA
:10D0E00017E1032900D117E1A027FF05BA46820006
:10D0F0009244E0225746D200BA5803AF9203910FF0
:10D100006246BA5C134200D1B3E0022908D1019B08
:10D11000032B00D135E14B46002B01D00199C847C4
:10D120004323E1564B1C37D0C9B20800B043C308B3
:10D130009C462A00012367460A40934005AAD25D17
:10D14000134229D0221820321278890952B2920053
:10D15000A25801919146002A00D1CEE0032900D1C6
:10D16000CEE0A027FF05BA4682009244E02257464F
:10D17000D200BA5803AF9203910F6246BA5C1342D1
:10D180005AD0022908D1019B032B00D1FDE04B4668
:10D19000002B01D00199C8474346002B00D1B3E6CC
:10D1A000A022A223D205DB00D358039A9A4200D1D1
:10D1B000AAE60393049B0593F3E6C122104992006B
:10D1C000895804220A4200D193E6002117431960CE
:10D1D0008FE6C1220A499200895802220A4200D1F0
:10D1E00082E60021174319607EE6C04600610040D8
:10D1F00004610040086100400C6100407C61004017
:10D2000000600040A8250020C1201F00614C800064
:10D2100020580740034200D161E611605FE600221A
:10D220001A60A022A223D205DB00D3580393002F5B
:10D2300000D085E6584CAEE60329ADD1019B032B07
:10D24000A5D180239B029C46E0235246DB00D258A6
:10D2500052490A405146CA50CA5861460A4351468B
:10D26000CA504B46002B9BD043460133DBB2984655
:10D2700090E7032900D053E7019B032B00D04AE736
:10D2800080239B029C46E0235246DB00D258434950
:10D290000A405146CA50CA5861460A435146CA50CC
:10D2A00043460133DBB2984635E7032900D0FAE65E
:10D2B000019B032B00D0F1E680239B029C46E023D8
:10D2C0005246DB00D25835490A405146CA50CA5826
:10D2D00061460A435146CA5043460133DBB2984681
:10D2E000DCE6032900D0DEE6674604AAD75D1F43CB
:10D2F000BA4667465146D155B9E6032900D04BE7F7
:10D30000674604AAD75D1F43BA4667465146D155C2
:10D3100027E7032900D003E7674604AAD75D1F4328
:10D32000BA4667465146D155DEE65A46032A00D032
:10D330007AE6674604AAD75D1F43B846674641466A
:10D34000D15550E65B46032B00D062E680239B025A
:10D350009C46E0234246DB00D25810490A40414631
:10D36000CA50CA5861460A434146CA5001239846EA
:10D3700051E6C0239B029C46EBE7C0239B029C46E0
:10D380009DE7C0239B029C467DE7C0239B029C46F1
:10D390005AE7C04600600040A8250020FFFFFCFFC0
:10D3A000F8B5CE46474680B507794B4EFD00EB1BDE
:10D3B0009B00F318DB7E04009146002B00D089E02F
:10D3C0000B685A1C0DD001209840A1220300A02018
:10D3D000D200C005835003220B68C133FF339B008A
:10D3E0001A504B685A1C06D0A0200022C133FF33CC
:10D3F0009B00C0051A5020688A69384BC250087DCE
:10D400004B7D22680343364813500A6823689446CC
:10D4100034484A681A50624633481A500B7D012B33
:10D4200031D04A46EB1B9B00F01842600A69F2506B
:10D430004B46002B12D08E22002320685200097F19
:10D440008350206828328350C1232068274A9B00DC
:10D45000C2502368180B40B2FFF7F4FCA02304214C
:10D460002268DB00D15000220020ED1BAD007319B3
:10D47000103575191A76EA800132FF325A83C0BC22
:10D48000B946B046F8BD8B685A1C06D0A0200022D1
:10D49000C133FF339B00C0051A50CB685A1C0ED015
:10D4A00001209840A1220300A020D200C005835093
:10D4B0000322CB68C133FF339B001A50CB688A68C4
:10D4C00020689446A122D2008350A2236246DB004A
:10D4D000C250A6E70820D2E7F0250020240500006E
:10D4E0006C050000140500000C050000800002001F
:10D4F000F0B5DE464E46574645463B4BE0B59B46AB
:10D5000006000079C3001B1A9B005B44987D00282D
:10D5100029D18E24988299609A7533790122984690
:10D5200033686400185133689A6043464246DB0012
:10D530009A1A92005A449C46936831689946085159
:10D540004846938AC05C938A01339BB29382274BEF
:10D55000C85053680020002B07D0F0BCBB46B24631
:10D56000A946A046F0BD1120F7E78025907D6D000B
:10D570001100938A143183421CD2316802E0938AED
:10D58000AB4202D00B59002BF9D0938AAB42EFD0BB
:10D5900000234F460B51938AFB5C9A465746938A69
:10D5A00001339BB29382114BCF501100938A1431F7
:10D5B0008342E2D380230A885B009A4211D08E21F5
:10D5C000326849005358002BFCD001230020D3605F
:10D5D000634642469B1A9B005B441F000023BB75B9
:10D5E000BBE70F20F4E7C046F02500201C05000033
:10D5F0000279D3009B1A044A9B00D318987D431EDE
:10D600009841C0B27047C046F0250020F0B54546AD
:10D610004E46DE4657466A4BE0B59C460579040007
:10D62000EB00581B800060444668904683B0002E93
:10D6300005D0C220812722688000BF0017505B1BE5
:10D640009B006344D87D002820D0187E002800D09D
:10D65000A5E0424619611A7623799946DB000193C9
:10D660004A46019B991A890061444B68002B30D0CF
:10D67000C1238121002022689B008900D15003B082
:10D68000F0BCBB46B246A946A046F0BD4246D960B2
:10D69000DA7558761876237999464A46DB00019365
:10D6A0009B1A9B0063449B7E002BD9D19222216858
:10D6B00052008B5021681C3A8B502368083AFF3A7D
:10D6C0001A604A46019B991A890061444B68002BF5
:10D6D000CED1A22252009246504622688426135090
:10D6E0009222520093460E3AFF3A90460A0088442E
:10D6F00040462368760019325D465D599F59A84619
:10D7000055465D59002F1BD1002D3DD04A46019B47
:10D7100047469B1A00229B006344DA75002F3CD1D8
:10D720000F20002DABD14A46019B9B1A9B006344FE
:10D730009B7E002B3DD00122236800201A609EE7CB
:10D7400047462F43E2D10578002D10D09F51A327E3
:10D75000FF001578DB59CF687B5513780133DBB2B6
:10D760001370137805789D4206D92368C4E7A32275
:10D770009D51D2009B584B7E4A46019B9B1A00222A
:10D780009B006344DA75CEE74746002FB4D04A4683
:10D79000019B9B1A9B006344DD7503206FE7002EFD
:10D7A0000CD0C123812122689B0089001120D15017
:10D7B00065E70122236800205A6060E711205EE7D8
:10D7C000F025002010B501790C4ACB005B1A9B00B4
:10D7D000D3189B7E002B10D192210468490063501E
:10D7E00004681C39635003680839FF3919600079EF
:10D7F000C3001B1A9B00D218917610BDF0250020A3
:10D80000C12330B55E4A9B00D35885B09B0559D5DE
:10D8100092235B00D158002954D00021D15081219E
:10D82000E533FF338900D150564B997E002901D151
:10D8300001315160022269460A7090215048C900A6
:10D840004258425069460392DA7D68460A72DA68A5
:10D8500001920022DA751A760ACB98478E21484A3F
:10D8600049005358002B0FD0464B9C8A9D7DAC42FB
:10D8700062D200205050998A9868405C998A0131A0
:10D8800089B29982404BD050A2233D4A5B00D158C7
:10D89000002915D00021D1503A4B997E002901D0A2
:10D8A00001211160DA7D002A0AD000226846012198
:10D8B000DA755A7E01700272DA680ACB01929847D3
:10D8C00005B030BDC1232E4A9B00D3585B07C5D598
:10D8D000842149005358002BC0D02A4BD87D002802
:10D8E00038D000205050A320C000597E1258D8686C
:10D8F00042545A7ED87D0132D2B25A765A7E824242
:10D90000ACD11A7E002A2AD19A7E002A02D10121A6
:10D910001B4A5160C2228120194992008000885020
:10D92000002268460121DA755A7E01700272DA68B7
:10D930000ACB0192984791E700205050002DA3D0C8
:10D940006A46107015729A689875019268460ACBFB
:10D95000984799E75050A321C9005258CEE7DA758D
:10D960001A69D968DA6000226C46587E1A765A76AF
:10D97000013220722270684601910ACB98476DE708
:10D9800000200040F02500201C05000090DF7047BB
:10D9900092DF704793DF7047F0B5294C294B24681C
:10D9A000C55C9BB0002C21D0F73BFF3B6B43C018FC
:10D9B000254B85789E78AE4233D0012C16D09E79C7
:10D9C000AE4233D0022C11D09E7AAE4233D0032C1B
:10D9D0000CD09E7BAE420BD0042C07D09E7CAE4276
:10D9E00015D0052C02D09C7DAC4215D01BB0F0BDEB
:10D9F0009F890688B742EFD1144B1B68002BF5D0E6
:10DA0000684642800122019102709847EEE71F8A22
:10DA10000688B742E5D1EFE79C8A03889C42E5D1AE
:10DA2000EAE707881E88B742C7D1E5E79F880688DE
:10DA3000B742C7D1E0E71F890688B742C7D1DBE705
:10DA4000142600205A020000A42800200C260020E2
:10DA5000F0B54546DE4657464E46E0B5464B83B0E8
:10DA600000920D00C15C454B1C689846002C21D0EB
:10DA700064264E43424B8619B7789A78BA4265D0ED
:10DA8000012C17D09A79BA4267D0022C12D09A7A18
:10DA9000BA4200D168E0032C0CD09A7BBA4210D075
:10DAA000042C07D09A7CBA4245D0052C02D09A7D2E
:10DAB000BA4246D003B0F0BCBB46B246A946A04627
:10DAC000F0BD9A89914632889145E9D12D4B1B686A
:10DAD0009A46002BEED02C4B1F689946052FE9D8AB
:10DAE0006C237B439B46294E0193B3445B46009ACB
:10DAF00001375A80642251430433411818006B42A5
:10DB00005D4100F0EBFF019A6D005B46B554524653
:10DB10009A664B461F60A742CCD10024B36E3000FA
:10DB2000984743461B6801346C369C42F6D3002369
:10DB30004A461360BEE71A8A914632889145B4D1AD
:10DB4000C4E79F8A33889F42B4D1BFE732889146A9
:10DB50001A88914500D093E7B8E7328891469A88B1
:10DB6000914500D091E7B1E71A89914632889145F5
:10DB700000D090E7AAE7C0465A0200001426002011
:10DB8000A42800200C260020A02800201826002011
:10DB9000F0B54E464546DE46574688466421E0B518
:10DBA00091462D4A2D4B825CC35C4A43DD00ED1843
:10DBB00081186D008B46AD1809790A355E1C070087
:10DBC00083B045198E423DD08B4234D2481E8446E4
:10DBD000901D8246F400A4196400A4180A343C196C
:10DBE0002D899C4516D05046A61A365A0135B542A5
:10DBF00019D001A9013E0D804E80002342464846BF
:10DC00001370FFF7C7FE03B0F0BCBB46B246A9468F
:10DC1000A046F0BD58460689B54211D001A901358C
:10DC20000D804E80E9E7250001330C48DEB23B54FD
:10DC30001234B142D4D80123424600201370E2E7E7
:10DC40000025F1E75A462B8912899342F3D001A9A6
:10DC500001330B804A80D0E75A02000059020000CD
:10DC600000280BD000230121054A1360054A1170DA
:10DC7000054A1360054B1860002070470E20FCE732
:10DC80001426002010260020A02800200C260020AA
:10DC9000010070B5002856D02E4B1B78002B23D0E6
:10DCA0002D4D2A68002A50D02C4B84789878A042B9
:10DCB0001CD0012A25D09879A0422BD0022A20D04E
:10DCC000987AA0422BD0032A1BD0987BA0422BD05D
:10DCD000042A16D0987CA0422BD0052A11D09E7D14
:10DCE0000420A6422AD070BD0820FCE71E880888C0
:10DCF0008642DED11A4804680020002CF3D1052AA0
:10DD000026D8541C90001818042200F0E7FE0020CA
:10DD10002C60E8E79E8808888642CFD1EAE71E8912
:10DD200008888642CFD1E5E79E8908888642CFD110
:10DD3000E0E71E8A08888642CFD1DBE79E8A0C88FE
:10DD4000A642D0D1D6E70E20CDE70124034BD9E778
:10DD50000420C8E71026002014260020A428002054
:10DD60000C26002070B504000D00002828D0154BAB
:10DD70001B78002B20D0144B1B68002B1CD0134E9B
:10DD8000835D002B1AD1124AA152124A1249136024
:10DD9000972292008354114A8354114A83540422D7
:10DDA00000F09CFE220001212800FFF7EFFD002873
:10DDB00001D10123A35570BD0820FCE71120FAE72B
:10DDC0000E20F8E710260020142600205B02000039
:10DDD0005E020000A0280020A42800205A020000B3
:10DDE00059020000F0B54546DE4657464E46E0B5BE
:10DDF0000C0005009FB0002800D17BE0002900D175
:10DE000078E06C4B1B78002B74D00B88322B00D140
:10DE1000E4E000D975E0112B00D1C2E0302B69D1CC
:10DE2000654A8B88825A9A4264D1CB88002B00D0F5
:10DE3000D3E16426614B0422C75C0E317E43861910
:10DE4000300000F04BFE21000422B01D123100F022
:10DE500045FE5B4BA088EB5C002B00D1EAE1013B67
:10DE6000DAB2D3009B18642257435B00DB19EB182E
:10DE70005B8A01339BB202AA1381338904A95381BF
:10DE8000FFF786FD002835D000224E4BEA544E4A5B
:10DE90004A4B1268A188EE5C002A27D0F73BFF3B73
:10DEA00073434A4FED18AB78BE789E4200D13DE3F4
:10DEB000012A1BD0BE799E4200D145E3022A15D02B
:10DEC000BE7A9E4200D14DE3032A0FD0BE7B9E4214
:10DED00000D155E3042A09D0BE7C9E4200D156E30E
:10DEE000052A03D0BA7D9A4200D1B7E20322384B0B
:10DEF0001A7059801FB0F0BCBB46B246A946A04676
:10DF0000F0BD332BF6D12C4B8A88C35A9A42F1D1FB
:10DF10002A4BC35C9C462A4BC35C9846CB88002B9B
:10DF200000D032E18B89002B00D12EE14346DB008B
:10DF300043445800674664237B43C0181A2399461C
:10DF4000281881440A004B460021A946214E1D0095
:10DF50000E3218E0204FBB4200D010E1138803833B
:10DF6000838A002B09D0C38A002B06D0038B002B99
:10DF700003D02B88002B00D006E1A38901310632A3
:10DF8000994200D300E15388B34200D1F9E000D9AF
:10DF9000F0E0A427BF01BB42DCD11388C382838A8F
:10DFA000DFE7054B8A88C35A9A42A3D10022054B6A
:10DFB000C2549FE7102600205E0200005A020000B3
:10DFC000590200005B02000014260020A428002053
:10DFD000182600200229000001290000D04B8A8861
:10DFE000C35A9A4200D085E7CB88002B00D097E037
:10DFF000CC4BC35C9B4664235A4653439A468244A7
:10E0000053461B7998460B7B4344052B00DD0CE1FE
:10E01000DBB299461A00019353461A71C84500D3E2
:10E02000E4E143465A46DF0064235A43944647449A
:10E030007F006744EF193800210000920E310A2258
:10E040000A3000F04BFD414600264B1CBE82FE828A
:10E050003E837E83994553D9009ADF009446FF188A
:10E060007F006744EF19380021000A220A30183176
:10E0700000F034FD43460233BE82FE823E837E833F
:10E0800099453DD9DF00FF18009B7F009C466744FF
:10E09000EF19380021000A220A30223100F01EFD5B
:10E0A0004246D31CBE82FE823E837E83994527D999
:10E0B000009ADF009446FF187F006744EF1938008C
:10E0C00021000A220A302C3100F008FD43460433B7
:10E0D000BE82FE823E837E83994511D9009ADF007D
:10E0E0009446FF187F006744EF19380021000A2288
:10E0F0000A30363100F0F2FCBE82FE823E837E831F
:10E100004A46013A53461989D3009B18584664225F
:10E1100042435B009B18EB185B8A8B4200D28BE07A
:10E120000027814B2800EF54984602ABA288D91DE6
:10E13000FFF72EFD061E00D0A8E002ABDB79002B16
:10E1400000D1D7E6A28801212800FFF781FC9722A1
:10E150009200AB5CA4880133DBB2AB54734A126803
:10E16000934200D2B4E10322714BEE54714B1A700A
:10E170005C80BFE6704FBB4201D113882B80838A3D
:10E18000EFE613888382ECE64D460026642762465C
:10E1900002ABDE7143467A43AA18127901339342E7
:10E1A00032D1012302AAD371A28801212800FFF7EE
:10E1B0004FFC97229200AB5CA4880133DBB2AB54D6
:10E1C0005A4A1268934200D25CE10022584BEA544A
:10E1D000584B03321A705C808CE60021FFF738FC44
:10E1E00097229200AB5CA6880133DBB2AB544F4A56
:10E1F0001468A34200D2A5E000224D4BEA544D4BD7
:10E2000003321A705E8075E6474A2800AB5402ABB1
:10E21000A288D91DFFF7BCFC002800D0E9E002ABC2
:10E22000DB79002B00D165E6BEE7052399461A008D
:10E230000193F1E6F3881EE6019E052E00D16FE7FB
:10E24000394BEE54A088331E00D165E1013BDBB2AF
:10E25000DE00F3185B009A18AA18538A01339BB2A8
:10E2600002AA5181138104A9FFF792FB011E00D17C
:10E2700040E600222E4B2800EA54A288FFF78CFBD0
:10E2800003222C4B1A70A2885A8033E6284BEF5495
:10E29000244BA188EA5C254B1B68002B00D125E6A6
:10E2A00064205043254F2D18AA78B878904200D1A9
:10E2B0002BE1012B00D119E6B879904200D12EE173
:10E2C000022B00D112E6B87A904200D135E1032B3F
:10E2D00000D10BE6B87B904200D13CE1042B00D189
:10E2E00004E6B87C904200D143E1052B00D1FDE566
:10E2F000BB7D934200D0F9E5BA8A2B889A4200D0C0
:10E30000F4E50F4B1B68002B00D1EFE502AA518109
:10E31000012202A90A7204A805969847A188E5E59A
:10E320005E0200005A02000059020000142600207C
:10E330005B0200001826002008290000A428002005
:10E340000C26002000239B465A46BB4BBB4FEA5489
:10E35000BB4B9A465246EB5C0133DBB2AB54F73A07
:10E36000FF3A91465A4390469900A84404227918EE
:10E37000404600F0B3FB5A46434601211A71300073
:10E380004246FFF703FB002800D1B3E55A46AD4BE8
:10E39000EA5453464A46EB5C5A43AD18AB78BA7818
:10E3A0009A4200D11DE1012C1BD0BA799A4200D1CA
:10E3B0002AE1022C15D0BA7A9A4200D12AE1032C24
:10E3C0000FD0BA7B9A4200D130E1042C09D0BA7C3C
:10E3D0009A4200D124E1052C03D0BA7D9A4200D1A3
:10E3E00038E10322984B1A705E8083E54246013A79
:10E3F00088E6944BEE54924BA188EA5C934B1B68E1
:10E40000002B00D172E55743ED198C4FAA78BE78E6
:10E41000964200D1C2E0012B00D167E5BE79964259
:10E4200000D1C2E0022B00D160E5BE7A964200D155
:10E43000C2E0032B00D159E5BE7B964200D1C2E079
:10E44000042B00D152E5BE7C964200D1C2E0052BE0
:10E4500000D14BE5BB7D934200D047E5BA8A2B88BB
:10E460009A4200D042E57A4B1B68002B00D13DE573
:10E4700002AA5181012202A90A72059004A89847B4
:10E48000A18833E5002764266B4B6D4AEF54AB5CE3
:10E490000133DBB25E43AB549900684BAE19591897
:10E4A0000422300000F01AFB0121320020003771F5
:10E4B000FFF76CFA011E00D11CE5624BEF542200FD
:10E4C0002800FFF769FA03225F4B1A705C8011E5A0
:10E4D000434664275A4AEE54AB5C58490133DBB2D9
:10E4E0005F43AB54EF199B00C9180422380000F0B9
:10E4F000F5FA01213A0020003E71FFF747FA011EAC
:10E5000000D1F7E44F4BEE54D9E738888446288889
:10E51000844500D0CDE6F4E65346DB88A0E6B88813
:10E5200084462888844500D0CAE6EAE62E88B446A8
:10E530003E88B44500D0BBE495E7388984462888F6
:10E54000844500D0C3E6DCE6BE88B4462E88B445D8
:10E5500000D0B3E487E7B88984462888844500D092
:10E56000BCE6CEE63E89B4462E88B44500D0ABE486
:10E5700079E7388A84462888844500D0B5E6C0E625
:10E580002E88B446BE89B44500D0A3E46BE72E883C
:10E59000B4463E8AB44500D0A2E464E73E88B4465F
:10E5A0002E88B44500D036E75DE7BE88B4462E8895
:10E5B000B44500D036E756E73E89B4462E88B445C8
:10E5C00000D036E74FE7BE89B4462E88B44500D068
:10E5D00036E748E73E8AB4462E88B44500D036E791
:10E5E00041E729883A88914200D0DCE6184B1B6845
:10E5F000002B00D1F5E602AA5681012202A90A7277
:10E60000059004A89847ECE6B9882A88914200D082
:10E61000CFE6EBE739892A88914200D0CFE6E5E7DB
:10E62000398A2A88914200D0D5E6DFE7B9892A885D
:10E63000914200D0C9E6D9E759020000A428002081
:10E640005A0200005B020000182600201426002059
:10E650000C260020BA8A2B889A4200D0C1E6C5E772
:10E6600003210A4802680A430260094802680A4313
:10E6700002600849084A094B9B1A03DD043BC8584D
:10E68000D050FBDC00F012F8FCF744FD24050040FC
:10E6900054050040A8FD0100B01E0020301F0020DE
:10E6A000FEE7FEE7FEE7FEE7FEE7FEE72D4B1B7801
:10E6B000012B00D070472C4B1B681B07FAD12B4A4B
:10E6C000F0231268110019401A4201D0102946D1D6
:10E6D000274A12681A421FD0F022244B1B681340AD
:10E6E000402B29D0F022214B1B681340A02B01D0D6
:10E6F000D02BDFD1F0231E4A12681A42DAD11D4A0C
:10E700001368012B04D01C4B13601368012BFCD140
:10E71000C0221A4B1A60CDE7194B1A4A1A608022A0
:10E72000194B12021A600F4B1B78012BC2D10E4BF2
:10E730001B681B07D0D0BDE70D4B1B681342D1D11E
:10E740008022C1230121DB00D205D150054B1B786B
:10E75000012BAFD1044B1B681B07C3D0AAE730299C
:10E76000B6D0B9E7E00F00F0E40F00F0E80F00F0DA
:10E77000EC0F00F000EC06407593000014EC06402E
:10E7800004050040DFFF07C0186C004052DF7047EF
:10E7900010DF704760DF704761DF704710B5FDF72D
:10E7A0007DFD10BDF0B54646D6464F46C0B5324B4E
:10E7B000324D98461B6882B05C425C412B78E4B2D3
:10E7C000002B2DD12E4B01A899462E4EFFF7DEFFD0
:10E7D000052837D0002838D0FDF750FD002C28D16F
:10E7E00000239A462B78DCB2002B19D14B466A469F
:10E7F0001B8837689380380001A9FFF7CDFF0528F3
:10E8000014D000282ED1434638001B689847534641
:10E81000002B0FD001239A462B78DCB2002BE5D0D9
:10E8200002B0E0BCBA46B146A846F0BD5346002B44
:10E83000F6D101242B78002BF2D101A8FFF7A6FF17
:10E840000528C7D1002CE5D0EAE70198FEF7B2FA17
:10E850000D4B1B68002B01D001989847002CBFD0AE
:10E860000124E7E7FDF70AFD5346002BD2D12B78B0
:10E87000002BE2D0D4E7C046C0280020C9280020E1
:10E88000BC280020D0280020CC280020014B18787C
:10E89000C0B27047C828002070B5002931D08C075D
:10E8A0002FD101251B4C21601B491C4C0A801C4A9E
:10E8B000136023681D4208D080231A49E550FFF7F2
:10E8C00067FF002806D0256070BD1649FFF760FF7E
:10E8D0000028F9D10124144B1C70FEF77DFAC523E2
:10E8E0000E4A9B00D3589B0D1C420CD00F4B58680E
:10E8F00000280AD080221968D2030A4300201A6037
:10E90000E2E70720E0E70A48DEE78023DB03136045
:10E91000DAE7C046D0280020BC28002000E100E053
:10E92000C42800209DE70100C82800208C25002075
:10E9300002200000002803D0024B1860002070471E
:10E940000E20FCE7C028002010B5094B1B68002BE7
:10E9500006D09847002800D110BDFDF78FFCFBE7DB
:10E96000044B1B78002BF7D0FFF71CFFF4E7C046E1
:10E97000C4280020C828002070B5140005000E002F
:10E98000142200212000FCF739FC0023012223611E
:10E99000237B22809343237326726572002D01D05E
:10E9A0000123A372002070BD00B5054B83B0019315
:10E9B000019B69460093FFF7EDFE019B03B000BD8C
:10E9C000B01E0020002243088B4274D303098B42FF
:10E9D0005FD3030A8B4244D3030B8B4228D3030C2F
:10E9E0008B420DD3FF22090212BA030C8B4202D3D1
:10E9F0001212090265D0030B8B4219D300E0090AF9
:10EA0000C30B8B4201D3CB03C01A5241830B8B4201
:10EA100001D38B03C01A5241430B8B4201D34B03EA
:10EA2000C01A5241030B8B4201D30B03C01A52414F
:10EA3000C30A8B4201D3CB02C01A5241830A8B42D4
:10EA400001D38B02C01A5241430A8B4201D34B02BD
:10EA5000C01A5241030A8B4201D30B02C01A524121
:10EA6000CDD2C3098B4201D3CB01C01A52418309D5
:10EA70008B4201D38B01C01A524143098B4201D30F
:10EA80004B01C01A524103098B4201D30B01C01A3A
:10EA90005241C3088B4201D3CB00C01A52418308B4
:10EAA0008B4201D38B00C01A524143088B4201D3E1
:10EAB0004B00C01A5241411A00D201465241104641
:10EAC0007047FFE701B5002000F006F802BDC04620
:10EAD0000029F7D076E770477047C046002310B58D
:10EAE0009A4200D110BDCC5CC4540133F8E7000059
:10EAF0000FB40B4B13B51C68002C05D0A369002B79
:10EB000002D1200000F078F805AB2000049AA1683B
:10EB1000019300F0D5F916BC08BC04B01847C046F4
:10EB2000B01E00200023C25C0133002AFBD1581E16
:10EB300070470000002310B5040003604360836049
:10EB4000818143661900C2810361436183610822A8
:10EB50005C30FCF753FB054B24626362044BA362F9
:10EB6000044BE362044B236310BDC0465DF4010017
:10EB700085F40100BDF40100E9F4010010B502497B
:10EB800000F0BAF810BDC046F5F7010070B5682571
:10EB90004A1E55430E002900743100F0F3F8041E9C
:10EBA00008D000212A00016046600C30A060683265
:10EBB000FCF724FB200070BD10B5024800F0BDF842
:10EBC00010BDC046D528002010B5024800F0B6F8A8
:10EBD00010BDC046D528002010B5024800F0ADF8A1
:10EBE00010BDC046D628002010B5024800F0A6F897
:10EBF00010BDC046D628002013B50400FFF7ECFF77
:10EC0000A369002B02D0FFF7EFFF13BDA364E364F9
:10EC10002365134B134A1B68A2620193A34201D1DF
:10EC20000123A361200000F01FF86060200000F0C5
:10EC30001BF8A060200000F017F800220421E0601B
:10EC40006068FFF777FF01220921A068FFF772FFD4
:10EC500002221221E068FFF76DFF0123A361D2E7D2
:10EC600038FB01007DEB0100F8B50700FFF7A4FFBA
:10EC70001F4B1E68B369002B02D13000FFF7BCFFA9
:10EC80004836B4687368013B04D53368002B22D042
:10EC90003668F6E70C22A55E002D1AD12000154B30
:10ECA0005830E360656600F047F8FFF78DFF2000FD
:10ECB000082229002560A560656025616561A56160
:10ECC0005C30FCF79BFA6563A563A564E5642000EE
:10ECD000F8BD6834D7E704213800FFF757FF041E5A
:10ECE0003060D5D1FFF770FF0C233B60EFE7C046E3
:10ECF00038FB01000100FFFFF7B504000600002704
:10ED0000019148346368A5680093009B013B009320
:10ED100004D52468002CF5D13800FEBDAB89012B49
:10ED200008D90E22AB5E013304D029003000019BCC
:10ED3000984707436835E8E7704770477047000019
:10ED400070B50F4E0D0031680400002902D100F0AB
:10ED500073FB30602900200000F06EFB431C0AD0DA
:10ED60000323C51C9D43A84207D0291A200000F0A8
:10ED700063FB431C01D101256D42280070BDC046D4
:10ED8000DC280020F7B50322CB1C93430833060090
:10ED90001F000C2B32D20C27B94231D8300000F0C2
:10EDA000F5FD324D2B681C00002C2ED139003000AF
:10EDB000FFF7C6FF0400431C1ED12C682500002D60
:10EDC0004AD123682900E3183000019300F034FB96
:10EDD000019B834243D123680337FF1A03239F43D8
:10EDE00008370C2F00D20C2739003000FFF7A8FF9E
:10EDF000431C34D02368DF19276013E0002BCBDAE3
:10EE00000C23002533602800FEBD2268D11B20D4CE
:10EE10000B2917D9E2192760A34211D12A60636830
:10EE2000116053603000250000F0B8FD07220B355B
:10EE3000231D9543EA1A9D42E5D05B1BA350E2E7F0
:10EE40005A60ECE76268A34201D12A60EAE75A609F
:10EE5000E8E723006468A7E72C006D68AFE70C23A0
:10EE60003000336000F09AFDCDE7C046D82800207E
:10EE7000936810B5013B9360002B04DA9469A342B8
:10EE800007DB0A2905D01368581C106019700800A8
:10EE900010BD00F02FFB0100F9E7F8B506000F00E8
:10EEA0001400D518AC4201D1002007E021783A00C7
:10EEB0003000FFF7DDFF0134431CF3D1F8BD000043
:10EEC000F0B5A1B006000C001F000392002804D08A
:10EED0008369002B01D1FFF78FFE8E4B9C421CD122
:10EEE0007468636EDB0705D4A3899B0502D4A06D0B
:10EEF000FFF723FFA3891B0702D52369002B1DD130
:10EF00002100300000F060FB002817D0636EDB07A3
:10EF10000DD50120404221B0F0BD7F4B9C4201D174
:10EF2000B468DEE77D4B9C42DBD1F468D9E7A38966
:10EF30009B05EED4A06DFFF701FFEAE7002308ADC3
:10EF40006B6120336B761033AB760797039F3B786A
:10EF5000002B01D0252B4ED1039BFB1A0593039B5D
:10EF60009F420DD0059B21003000039AFFF795FFCB
:10EF7000431C00D1B5E06A69059B944663446B610C
:10EF80003B78002B00D1ACE001227B1C03930023D3
:10EF900052426A6004A9543252182B60EB60AB6095
:10EFA0001370AB65039B052219785D4800F0E2FC05
:10EFB000039B5F1C002820D12A68D30604D5532365
:10EFC00004A95B1820211970130704D5532304A941
:10EFD0005B182B211970039B1B782A2B16D000215C
:10EFE000EB68039F3A78781C303A8446092A4FD957
:10EFF000002911D117E00137A9E7494B2A68C01A47
:10F000000123834013432B600397CBE7079B191D14
:10F010001B680791002B01DB0B9304E05B42EB6064
:10F02000022313432B603B782E2B0AD17B782A2BAB
:10F0300037D1079B02371A1D1B680792002B2DDB67
:10F04000099303223978374800F094FC002807D050
:10F05000344B2A68C01A40238340134301372B6086
:10F0600039787B1C062230480393297600F082FC15
:10F07000002845D02D4B002B27D10722079B0733B3
:10F080009343083307936B69049A9B186B615DE7A0
:10F090000A214B4367469B180939A3E701235B42CA
:10F0A000CEE700231A0001376B603978781C3039BD
:10F0B0008446092903D9002BC3D00992C1E70A234A
:10F0C0005A4367465218093BEFE707AB009322000B
:10F0D00029003000164B00E000BF0490049B013370
:10F0E000D1D1636EDB0705D4A3899B0502D4A06D43
:10F0F000FFF724FEA3895B0600D50AE70D980AE70F
:10F1000007AB0093220029003000094B00F082F881
:10F11000E3E7C04628FD010048FD010008FD0100AD
:10F1200068FD01006EFD010072FD0100000000009D
:10F130009BEE0100F7B5150001938A680B690C007E
:10F140000090934200DA130022002B6043321278C1
:10F15000002A01D001332B6023689B0602D52B685F
:10F1600002332B602268062317001F401A4227D063
:10F17000230043331B785A1E93412268920630D4F1
:10F18000220001990098089E4332B047431C25D0C5
:10F19000062320682A68E16800250340042B03D178
:10F1A0008D1AEB43DB171D40A3682269934201DDF2
:10F1B0009B1AED180027BD4220D1002010E0013736
:10F1C000E3682A689B1ABB42D2DD22000123019921
:10F1D0000098089E1932B047431CF0D101204042EC
:10F1E000FEBD3020E1184331087021005A1C453122
:10F1F0000978A218433202331170C1E722000123BB
:10F2000001990098089E1A32B047431CE6D0013796
:10F21000D1E70000F0B58BB006920A0043320793A5
:10F22000059004920A7E0C00109B782A07D8622A67
:10F2300009D8002A00D1C1E0582A00D18CE026006C
:10F240004236327022E0100063381528F7D800F0FB
:10F250002FFC16001F00F6FFF6FFF6FFF6FF1F005B
:10F26000F6FFF6FFF6FFF6FFA80036009A00F6FF5D
:10F27000F6FFB900F6FF3600F6FFF6FF9E00260007
:10F280001A684236111D1960136833700123A7E014
:10F29000086819680A1D05060BD50D681A60002D4F
:10F2A00003DA2D23049A6D421370614B0A270393EE
:10F2B0001BE00D681A604106F1D52DB2EFE70D682D
:10F2C0001968081D18602E0601D50D6803E06D064B
:10F2D000FBD50D68ADB2564B082703936F2A00D0BB
:10F2E00002372300002243331A706368A360002BA7
:10F2F00003DB0422216891432160002D02D1049E8A
:10F30000002B0CD0049E28003900FFF7E1FB039B83
:10F31000013E5B5C33702B0005009F42F3D9082F40
:10F3200009D12368DB0706D563682269934202DCB2
:10F330003023013E3370049B9B1B2361079B2100FC
:10F3400000930598069B09AAFFF7F4FE431C4CD1D5
:10F35000012040420BB0F0BD45310A70344A03929F
:10F360001A68216820CA1A60080616D5CB0702D58C
:10F370002023194321601027002DB2D120232268B9
:10F380009A432260ADE7202209680A4322602200E6
:10F39000782145321170274AE1E74806E6D5ADB23B
:10F3A000E4E71A680D68101D4969186013682E0695
:10F3B00001D5196002E06D06FBD519800023049E7B
:10F3C0002361BBE71A68111D19601668002130001F
:10F3D000626800F0CFFA002801D0801B606063688B
:10F3E00023610023049A1370A8E723693200069969
:10F3F0000598079DA847431CAAD023689B0715D4EE
:10F40000099BE0689842A5DA1800A3E722000123CF
:10F4100006990598079E1932B047431C98D00135CC
:10F42000E368099A9B1AAB42F0DCE9E70025F7E7AD
:10F4300079FD01008AFD0100002370B5064D04002E
:10F4400008002B6000F05EFB431C03D12B68002BEF
:10F4500000D0236070BDC046E028002070B50C00CD
:10F460000E25495F00F0ECFA002803DB636D1B18E2
:10F47000636570BDA389024A1340A381F9E7C046C2
:10F48000FFEFFFFFF8B51F008B8905000C00160089
:10F49000DB0505D50E23C95E0022022300F0EAF940
:10F4A000A389054A28001340A38132000E23E15EA0
:10F4B0003B0000F075F8F8BDFFEFFFFF70B50C00E2
:10F4C0000E25495F00F0D6F9A389421C03D1054AF5
:10F4D0001340A38170BD802252011343A381606554
:10F4E000F8E7C046FFEFFFFF10B50E23C95E00F03E
:10F4F000E3F810BDF8B505000E001400002804D094
:10F500008369002B01D1FFF777FB224B9C422ED160
:10F510006C68A369A360A3891B0732D52369002BFC
:10F520002FD023682269F7B2981A6369F6B2834232
:10F5300005DC2100280000F05DF9002827D1A36830
:10F540000130013BA36023685A1C22601F7063696D
:10F55000834204D0A389DB0707D50A2E05D12100F9
:10F56000280000F047F9002811D13000F8BD0A4BFF
:10F570009C4201D1AC68CCE7084B9C42C9D1EC68F5
:10F58000C7E72100280000F01FF80028C9D0012695
:10F590007642EAE728FD010048FD010008FD010070
:10F5A00070B50400080011001A000023054D2B60FF
:10F5B000FDF79EFB431C03D12B68002B00D023607A
:10F5C00070BDC046E0280020374B70B51D680600AE
:10F5D0000C00002D05D0AB69002B02D12800FFF7ED
:10F5E0000BFB324B9C420FD16C680C23E25E93B252
:10F5F00011072DD4D90611D40923012033603733E4
:10F600001343A381404270BD294B9C4201D1AC6899
:10F61000EBE7284B9C42E8D1EC68E6E75B0713D5A3
:10F62000616B002908D023004433994202D0300096
:10F6300000F0BCF9002363632422A3899343A381D0
:10F6400000236360236923600823A2891343A381F5
:10F650002369002B0BD1A0218022A389890092006D
:10F660000B40934203D02100300000F03FF90C2200
:10F67000A35E01201A0099B2024003420FD000227B
:10F68000A26062695242A261002022698242BAD11C
:10F690000A06B8D540221343A3810138B3E788078F
:10F6A00000D46269A260EFE7B01E002028FD0100CF
:10F6B00048FD010008FD0100002370B5064D04005F
:10F6C00008002B6000F0FEF9431C03D12B68002BCF
:10F6D00000D0236070BDC046E0280020F7B58B89BC
:10F6E00005000C001A075FD44A68002A04DC0A6C83
:10F6F000002A01DC0020FEBDE76A002FFAD00022BC
:10F7000080212E682A601A0049010A400B4234D039
:10F71000606DA3895B0706D56368C01A636B002B15
:10F7200001D0236CC01A0200216A00232800E76A76
:10F73000B847A189431C06D12B681D2B31D82C4A10
:10F74000DA40D3072DD50023636023692360CB04FF
:10F7500005D5431C02D12B68002B00D16065616B7D
:10F760002E600029C6D023004433994202D02800DD
:10F7700000F01CF900206063BDE701232800216A26
:10F78000B847431CC5D12B68002BC2D01D2B01D01C
:10F79000162B01D12E60ADE74023A2891343A3812C
:10F7A000A9E740230B43FAE70F69002FA2D00A68AC
:10F7B0000F60D21B019200229B0700D14A69A26010
:10F7C000019B002B00DC95E73A002800019B216A91
:10F7D000A66AB047002806DC40230120A2894042E7
:10F7E0001343A38187E7019B3F181B1A0193E7E7A7
:10F7F000010040200B6970B505000C00002B02D100
:10F800000025280070BD002804D08369002B01D199
:10F81000FFF7F2F9144B9C421BD16C680C22A35EDB
:10F82000002BEDD0626ED20704D49B0502D4A06DEC
:10F83000FFF783FA28002100FFF750FF636E0500F1
:10F84000DB07DED4A3899B05DBD4A06DFFF776FA36
:10F85000D7E7064B9C4201D1AC68DFE7044B9C42E2
:10F86000DCD1EC68DAE7C04628FD010048FD010064
:10F8700008FD010070B50400080011001A00002303
:10F88000054D2B6000F036F9431C03D12B68002B8B
:10F8900000D0236070BDC046E028002070B50E0087
:10F8A0001D000E23C95E140096B0002908DA0C2250
:10F8B000B35E00222A601B0611D48023DB000FE018
:10F8C0006A4600F0D1F80028F1DBF02301991B0211
:10F8D0001940054BC9184B4259412960EDE74023B7
:10F8E0000020236016B070BD00E0FFFFF7B50226D0
:10F8F0008B8905000C00334206D023004733236078
:10F90000236101236361F7BD6A4601ABFFF7C6FFC0
:10F91000009907002800FFF735FA002808D10C22CB
:10F92000A35E9A05EFD4032293431E43A681E4E726
:10F930000F4BAB628023A28920601343A381009BFD
:10F9400020616361019B002B0DD028000E23E15E36
:10F9500000F09CF8002806D00322A38993431A00E4
:10F9600001231343A381A0890743A781CBE7C046A6
:10F970007DEB0100C9B28218904201D1002070478E
:10F9800003788B42FBD00130F6E7000010B5024847
:10F99000FFF7D3F910BDC046D428002010B50248A7
:10F9A000FFF7CCF910BDC046D428002070B5050083
:10F9B000002910D00C1F2368002B00DAE41828005F
:10F9C000FFF7E4FF1D4A1368002B05D16360146044
:10F9D0002800FFF7E3FF70BDA34208D92168601833
:10F9E0008342F3D118685B6841182160EEE71A0082
:10F9F0005B68002B01D0A342F9D911685018A042CE
:10FA00000BD120680918501811608342E0D11868A2
:10FA10005B68411811605360DAE7A04202D90C23F9
:10FA20002B60D5E721686018834203D118685B68B2
:10FA30004118216063605460CAE7C046D82800209E
:10FA400070B50400080011001A000023054D2B605A
:10FA5000FDF75CF9431C03D12B68002B00D0236019
:10FA600070BDC046E0280020002370B5064D04009C
:10FA7000080011002B6000F02DF8431C03D12B6807
:10FA8000002B00D0236070BDE0280020002370B55B
:10FA9000064D040008002B6000F024F8431C03D13D
:10FAA0002B68002B00D0236070BDC046E0280020EA
:10FAB00003B47146490840004900095E49008E447C
:10FAC00003BC704758220120014B40421A60704726
:10FAD000E028002058220120014B40421A60704764
:10FAE000E02800205822024B00201A607047C046D0
:10FAF000E028002058220120014B40421A60704744
:10FB0000E0280020044A03001068002802D0C3182F
:10FB1000136070470148FAE7E4280020E828002035
:10FB2000F8B5C046F8BC08BC9E467047F8B5C0465C
:10FB3000F8BC08BC9E467047B41E002037363331EF
:10FB400032303435000000005363616E2074696DFB
:10FB5000656F75742E0D0A00436F6E6E6563746970
:10FB60006F6E2074696D6564206F75742E0D0A00C8
:10FB7000BEB3010014B4010032B401009AB4010014
:10FB800032B4010032B4010032B4010032B40100D9
:10FB900032B4010032B4010032B40100AAB4010051
:10FBA00032B40100BCB4010032B40100C8B4010099
:10FBB00032B4010032B4010032B4010032B40100A9
:10FBC00032B4010032B4010032B4010032B4010099
:10FBD00032B4010032B4010032B4010032B4010089
:10FBE00032B4010032B4010032B4010032B4010079
:10FBF00032B4010032B4010032B4010032B4010069
:10FC000032B4010032B4010032B4010032B4010058
:10FC100032B4010032B401004AB401004E6F7420C6
:10FC2000616C6C6F7765642C2062616420696E7012
:10FC300075740D0A000000004E6F7420616C6C6FCB
:10FC40007765642C206E6F20636C69656E740D0A95
:10FC5000000000004348414E474520444556494373
:10FC6000450000004572726F72200D0A000000000E
:10FC70005F463B30000000000100000710003C0020
:10FC8000000090010100000000000000A0005000F2
:10FC900000000000FB349B5F80000080001000002B
:10FCA00000000000530000004E6F206C6F6E672054
:10FCB0006E616D650D0A00002000000025630000E4
:10FCC00049256420000000004325640A000000006C
:10FCD0005F67313B313B32303B32303B3400000018
:10FCE0005F730000FFFFFFFFFFFFFFFFFFFFFFFF4E
:10FCF000FFFFFFFF000000000000000000E0D70150
:10FD000003000000171819000000000000000000A8
:10FD100000000000000000000000000000000000E3
:10FD200000000000000000000000000000000000D3
:10FD300000000000000000000000000000000000C3
:10FD400000000000000000000000000000000000B3
:10FD500000000000000000000000000000000000A3
:10FD60000000000000000000232D302B2000686CF4
:10FD70004C006566674546470030313233343536CE
:10FD80003738394142434445460030313233343507
:10FD90003637383961626364656600000000000030
:08FDA00068B3FF7F01000000C1
:10FDA800B41E00200000000028FD010048FD0100ED
:10FDB80008FD010000000000000000000000000035
:10FDC800000000000000000000000000000000002B
:10FDD800000000000000000000000000000000001B
:10FDE800000000000000000000000000000000000B
:10FDF80000000000000000000000000000000000FB
:10FE08000000000001000000002000400000000089
:0CFE18000024F400E9B00100C1B00100BA
:040000031000E661A2
:00000001FF
